{
	"contracts/contractcall.sol": {
		"one": {
			"abi": [
				{
					"constant": false,
					"inputs": [],
					"name": "mint",
					"outputs": [],
					"payable": false,
					"stateMutability": "nonpayable",
					"type": "function"
				}
			],
			"devdoc": {
				"methods": {}
			},
			"evm": {
				"assembly": "    /* \"contracts/contractcall.sol\":75:171  contract one \r... */\n  mstore(0x40, 0x80)\n  callvalue\n    /* \"--CODEGEN--\":8:17   */\n  dup1\n    /* \"--CODEGEN--\":5:7   */\n  iszero\n  tag_1\n  jumpi\n    /* \"--CODEGEN--\":30:31   */\n  0x0\n    /* \"--CODEGEN--\":27:28   */\n  dup1\n    /* \"--CODEGEN--\":20:32   */\n  revert\n    /* \"--CODEGEN--\":5:7   */\ntag_1:\n    /* \"contracts/contractcall.sol\":75:171  contract one \r... */\n  pop\n  dataSize(sub_0)\n  dup1\n  dataOffset(sub_0)\n  0x0\n  codecopy\n  0x0\n  return\nstop\n\nsub_0: assembly {\n        /* \"contracts/contractcall.sol\":75:171  contract one \r... */\n      mstore(0x40, 0x80)\n      jumpi(tag_1, lt(calldatasize, 0x4))\n      calldataload(0x0)\n      0x100000000000000000000000000000000000000000000000000000000\n      swap1\n      div\n      dup1\n      0x1249c58b\n      eq\n      tag_2\n      jumpi\n    tag_1:\n      0x0\n      dup1\n      revert\n        /* \"contracts/contractcall.sol\":138:168  function mint() public\r... */\n    tag_2:\n      callvalue\n        /* \"--CODEGEN--\":8:17   */\n      dup1\n        /* \"--CODEGEN--\":5:7   */\n      iszero\n      tag_3\n      jumpi\n        /* \"--CODEGEN--\":30:31   */\n      0x0\n        /* \"--CODEGEN--\":27:28   */\n      dup1\n        /* \"--CODEGEN--\":20:32   */\n      revert\n        /* \"--CODEGEN--\":5:7   */\n    tag_3:\n        /* \"contracts/contractcall.sol\":138:168  function mint() public\r... */\n      pop\n      tag_4\n      tag_5\n      jump\t// in\n    tag_4:\n      stop\n    tag_5:\n      jump\t// out\n\n    auxdata: 0xa165627a7a72305820f765ab5766d7529dc7308486a65a8b6a81b01509d5805ccf8806fdced2f39e6c0029\n}\n",
				"bytecode": {
					"linkReferences": {},
					"object": "6080604052348015600f57600080fd5b5060808061001e6000396000f3fe6080604052600436106039576000357c0100000000000000000000000000000000000000000000000000000000900480631249c58b14603e575b600080fd5b348015604957600080fd5b5060506052565b005b56fea165627a7a72305820f765ab5766d7529dc7308486a65a8b6a81b01509d5805ccf8806fdced2f39e6c0029",
					"opcodes": "PUSH1 0x80 PUSH1 0x40 MSTORE CALLVALUE DUP1 ISZERO PUSH1 0xF JUMPI PUSH1 0x0 DUP1 REVERT JUMPDEST POP PUSH1 0x80 DUP1 PUSH2 0x1E PUSH1 0x0 CODECOPY PUSH1 0x0 RETURN INVALID PUSH1 0x80 PUSH1 0x40 MSTORE PUSH1 0x4 CALLDATASIZE LT PUSH1 0x39 JUMPI PUSH1 0x0 CALLDATALOAD PUSH29 0x100000000000000000000000000000000000000000000000000000000 SWAP1 DIV DUP1 PUSH4 0x1249C58B EQ PUSH1 0x3E JUMPI JUMPDEST PUSH1 0x0 DUP1 REVERT JUMPDEST CALLVALUE DUP1 ISZERO PUSH1 0x49 JUMPI PUSH1 0x0 DUP1 REVERT JUMPDEST POP PUSH1 0x50 PUSH1 0x52 JUMP JUMPDEST STOP JUMPDEST JUMP INVALID LOG1 PUSH6 0x627A7A723058 KECCAK256 0xf7 PUSH6 0xAB5766D7529D 0xc7 ADDRESS DUP5 DUP7 0xa6 GAS DUP12 PUSH11 0x81B01509D5805CCF8806FD 0xce 0xd2 RETURN SWAP15 PUSH13 0x290000000000000000000000 "
				},
				"gasEstimates": {
					"creation": {
						"codeDepositCost": "25600",
						"executionCost": "75",
						"totalCost": "25675"
					},
					"external": {
						"mint()": "127"
					}
				},
				"methodIdentifiers": {
					"mint()": "1249c58b"
				}
			},
			"userdoc": {
				"methods": {}
			}
		}
	}
}