{
	"contracts/enum.sol": {
		"enum_tutorial": {
			"abi": [
				{
					"inputs": [],
					"stateMutability": "nonpayable",
					"type": "constructor"
				},
				{
					"inputs": [],
					"name": "get_person",
					"outputs": [
						{
							"internalType": "enum enum_tutorial.PersonType",
							"name": "",
							"type": "uint8"
						}
					],
					"stateMutability": "view",
					"type": "function"
				},
				{
					"inputs": [],
					"name": "promote_person",
					"outputs": [],
					"stateMutability": "nonpayable",
					"type": "function"
				}
			],
			"devdoc": {
				"kind": "dev",
				"methods": {},
				"version": 1
			},
			"evm": {
				"assembly": "    /* \"contracts/enum.sol\":56:528  contract enum_tutorial\r... */\n  mstore(0x40, 0x80)\n    /* \"contracts/enum.sol\":185:281  constructor()\r... */\n  callvalue\n  dup1\n  iszero\n  tag_1\n  jumpi\n  0x00\n  dup1\n  revert\ntag_1:\n  pop\n    /* \"contracts/enum.sol\":254:273  PersonType.outsider */\n  0x00\n    /* \"contracts/enum.sol\":245:251  person */\n  dup1\n  0x00\n    /* \"contracts/enum.sol\":245:273  person = PersonType.outsider */\n  0x0100\n  exp\n  dup2\n  sload\n  dup2\n  0xff\n  mul\n  not\n  and\n  swap1\n  dup4\n  0x02\n  dup2\n  gt\n  iszero\n  tag_4\n  jumpi\n  tag_5\n  tag_6\n  jump\t// in\ntag_5:\ntag_4:\n  mul\n  or\n  swap1\n  sstore\n  pop\n    /* \"contracts/enum.sol\":56:528  contract enum_tutorial\r... */\n  jump(tag_7)\n    /* \"#utility.yul\":7:187   */\ntag_6:\n    /* \"#utility.yul\":55:132   */\n  0x4e487b7100000000000000000000000000000000000000000000000000000000\n    /* \"#utility.yul\":52:53   */\n  0x00\n    /* \"#utility.yul\":45:133   */\n  mstore\n    /* \"#utility.yul\":152:156   */\n  0x21\n    /* \"#utility.yul\":149:150   */\n  0x04\n    /* \"#utility.yul\":142:157   */\n  mstore\n    /* \"#utility.yul\":176:180   */\n  0x24\n    /* \"#utility.yul\":173:174   */\n  0x00\n    /* \"#utility.yul\":166:181   */\n  revert\n    /* \"contracts/enum.sol\":56:528  contract enum_tutorial\r... */\ntag_7:\n  dataSize(sub_0)\n  dup1\n  dataOffset(sub_0)\n  0x00\n  codecopy\n  0x00\n  return\nstop\n\nsub_0: assembly {\n        /* \"contracts/enum.sol\":56:528  contract enum_tutorial\r... */\n      mstore(0x40, 0x80)\n      callvalue\n      dup1\n      iszero\n      tag_1\n      jumpi\n      0x00\n      dup1\n      revert\n    tag_1:\n      pop\n      jumpi(tag_2, lt(calldatasize, 0x04))\n      shr(0xe0, calldataload(0x00))\n      dup1\n      0x2c1a9a07\n      eq\n      tag_3\n      jumpi\n      dup1\n      0xc2dc6e51\n      eq\n      tag_4\n      jumpi\n    tag_2:\n      0x00\n      dup1\n      revert\n        /* \"contracts/enum.sol\":289:423  function promote_person() public\r... */\n    tag_3:\n      tag_5\n      tag_6\n      jump\t// in\n    tag_5:\n      stop\n        /* \"contracts/enum.sol\":431:523  function get_person() public view returns (PersonType)\r... */\n    tag_4:\n      tag_7\n      tag_8\n      jump\t// in\n    tag_7:\n      mload(0x40)\n      tag_9\n      swap2\n      swap1\n      tag_10\n      jump\t// in\n    tag_9:\n      mload(0x40)\n      dup1\n      swap2\n      sub\n      swap1\n      return\n        /* \"contracts/enum.sol\":289:423  function promote_person() public\r... */\n    tag_6:\n        /* \"contracts/enum.sol\":351:370  PersonType.outsider */\n      0x00\n        /* \"contracts/enum.sol\":341:370  person == PersonType.outsider */\n      0x02\n      dup2\n      gt\n      iszero\n      tag_12\n      jumpi\n      tag_13\n      tag_14\n      jump\t// in\n    tag_13:\n    tag_12:\n        /* \"contracts/enum.sol\":341:347  person */\n      0x00\n      dup1\n      sload\n      swap1\n      0x0100\n      exp\n      swap1\n      div\n      0xff\n      and\n        /* \"contracts/enum.sol\":341:370  person == PersonType.outsider */\n      0x02\n      dup2\n      gt\n      iszero\n      tag_15\n      jumpi\n      tag_16\n      tag_14\n      jump\t// in\n    tag_16:\n    tag_15:\n      pop\n      pop\n        /* \"contracts/enum.sol\":289:423  function promote_person() public\r... */\n      jump\t// out\n        /* \"contracts/enum.sol\":431:523  function get_person() public view returns (PersonType)\r... */\n    tag_8:\n        /* \"contracts/enum.sol\":474:484  PersonType */\n      0x00\n        /* \"contracts/enum.sol\":509:515  person */\n      dup1\n      0x00\n      swap1\n      sload\n      swap1\n      0x0100\n      exp\n      swap1\n      div\n      0xff\n      and\n        /* \"contracts/enum.sol\":502:515  return person */\n      swap1\n      pop\n        /* \"contracts/enum.sol\":431:523  function get_person() public view returns (PersonType)\r... */\n      swap1\n      jump\t// out\n        /* \"#utility.yul\":7:158   */\n    tag_20:\n        /* \"#utility.yul\":104:151   */\n      tag_22\n        /* \"#utility.yul\":145:150   */\n      dup2\n        /* \"#utility.yul\":104:151   */\n      tag_23\n      jump\t// in\n    tag_22:\n        /* \"#utility.yul\":99:102   */\n      dup3\n        /* \"#utility.yul\":92:152   */\n      mstore\n        /* \"#utility.yul\":7:158   */\n      pop\n      pop\n      jump\t// out\n        /* \"#utility.yul\":164:406   */\n    tag_10:\n        /* \"#utility.yul\":267:271   */\n      0x00\n        /* \"#utility.yul\":305:307   */\n      0x20\n        /* \"#utility.yul\":294:303   */\n      dup3\n        /* \"#utility.yul\":290:308   */\n      add\n        /* \"#utility.yul\":282:308   */\n      swap1\n      pop\n        /* \"#utility.yul\":318:399   */\n      tag_25\n        /* \"#utility.yul\":396:397   */\n      0x00\n        /* \"#utility.yul\":385:394   */\n      dup4\n        /* \"#utility.yul\":381:398   */\n      add\n        /* \"#utility.yul\":372:378   */\n      dup5\n        /* \"#utility.yul\":318:399   */\n      tag_20\n      jump\t// in\n    tag_25:\n        /* \"#utility.yul\":164:406   */\n      swap3\n      swap2\n      pop\n      pop\n      jump\t// out\n        /* \"#utility.yul\":412:547   */\n    tag_26:\n        /* \"#utility.yul\":461:468   */\n      0x00\n        /* \"#utility.yul\":490:495   */\n      dup2\n        /* \"#utility.yul\":479:495   */\n      swap1\n      pop\n        /* \"#utility.yul\":496:541   */\n      tag_28\n        /* \"#utility.yul\":535:540   */\n      dup3\n        /* \"#utility.yul\":496:541   */\n      tag_29\n      jump\t// in\n    tag_28:\n        /* \"#utility.yul\":412:547   */\n      swap2\n      swap1\n      pop\n      jump\t// out\n        /* \"#utility.yul\":553:688   */\n    tag_23:\n        /* \"#utility.yul\":613:622   */\n      0x00\n        /* \"#utility.yul\":646:682   */\n      tag_31\n        /* \"#utility.yul\":676:681   */\n      dup3\n        /* \"#utility.yul\":646:682   */\n      tag_26\n      jump\t// in\n    tag_31:\n        /* \"#utility.yul\":633:682   */\n      swap1\n      pop\n        /* \"#utility.yul\":553:688   */\n      swap2\n      swap1\n      pop\n      jump\t// out\n        /* \"#utility.yul\":694:874   */\n    tag_14:\n        /* \"#utility.yul\":742:819   */\n      0x4e487b7100000000000000000000000000000000000000000000000000000000\n        /* \"#utility.yul\":739:740   */\n      0x00\n        /* \"#utility.yul\":732:820   */\n      mstore\n        /* \"#utility.yul\":839:843   */\n      0x21\n        /* \"#utility.yul\":836:837   */\n      0x04\n        /* \"#utility.yul\":829:844   */\n      mstore\n        /* \"#utility.yul\":863:867   */\n      0x24\n        /* \"#utility.yul\":860:861   */\n      0x00\n        /* \"#utility.yul\":853:868   */\n      revert\n        /* \"#utility.yul\":880:997   */\n    tag_29:\n        /* \"#utility.yul\":965:966   */\n      0x03\n        /* \"#utility.yul\":958:963   */\n      dup2\n        /* \"#utility.yul\":955:967   */\n      lt\n        /* \"#utility.yul\":945:991   */\n      tag_34\n      jumpi\n        /* \"#utility.yul\":971:989   */\n      tag_35\n      tag_14\n      jump\t// in\n    tag_35:\n        /* \"#utility.yul\":945:991   */\n    tag_34:\n        /* \"#utility.yul\":880:997   */\n      pop\n      jump\t// out\n\n    auxdata: 0xa2646970667358221220302661921bdd32b1f52498c9460d91adf7b89a1b961832a3d06d6ce2e211565e64736f6c63430008070033\n}\n",
				"bytecode": {
					"linkReferences": {},
					"object": "608060405234801561001057600080fd5b5060008060006101000a81548160ff0219169083600281111561003657610035610040565b5b021790555061006f565b7f4e487b7100000000000000000000000000000000000000000000000000000000600052602160045260246000fd5b6101798061007e6000396000f3fe608060405234801561001057600080fd5b50600436106100365760003560e01c80632c1a9a071461003b578063c2dc6e5114610045575b600080fd5b610043610063565b005b61004d61009b565b60405161005a91906100c0565b60405180910390f35b6000600281111561007757610076610100565b5b60008054906101000a900460ff16600281111561009757610096610100565b5b5050565b60008060009054906101000a900460ff16905090565b6100ba816100ee565b82525050565b60006020820190506100d560008301846100b1565b92915050565b60008190506100e98261012f565b919050565b60006100f9826100db565b9050919050565b7f4e487b7100000000000000000000000000000000000000000000000000000000600052602160045260246000fd5b600381106101405761013f610100565b5b5056fea2646970667358221220302661921bdd32b1f52498c9460d91adf7b89a1b961832a3d06d6ce2e211565e64736f6c63430008070033",
					"opcodes": "PUSH1 0x80 PUSH1 0x40 MSTORE CALLVALUE DUP1 ISZERO PUSH2 0x10 JUMPI PUSH1 0x0 DUP1 REVERT JUMPDEST POP PUSH1 0x0 DUP1 PUSH1 0x0 PUSH2 0x100 EXP DUP2 SLOAD DUP2 PUSH1 0xFF MUL NOT AND SWAP1 DUP4 PUSH1 0x2 DUP2 GT ISZERO PUSH2 0x36 JUMPI PUSH2 0x35 PUSH2 0x40 JUMP JUMPDEST JUMPDEST MUL OR SWAP1 SSTORE POP PUSH2 0x6F JUMP JUMPDEST PUSH32 0x4E487B7100000000000000000000000000000000000000000000000000000000 PUSH1 0x0 MSTORE PUSH1 0x21 PUSH1 0x4 MSTORE PUSH1 0x24 PUSH1 0x0 REVERT JUMPDEST PUSH2 0x179 DUP1 PUSH2 0x7E PUSH1 0x0 CODECOPY PUSH1 0x0 RETURN INVALID PUSH1 0x80 PUSH1 0x40 MSTORE CALLVALUE DUP1 ISZERO PUSH2 0x10 JUMPI PUSH1 0x0 DUP1 REVERT JUMPDEST POP PUSH1 0x4 CALLDATASIZE LT PUSH2 0x36 JUMPI PUSH1 0x0 CALLDATALOAD PUSH1 0xE0 SHR DUP1 PUSH4 0x2C1A9A07 EQ PUSH2 0x3B JUMPI DUP1 PUSH4 0xC2DC6E51 EQ PUSH2 0x45 JUMPI JUMPDEST PUSH1 0x0 DUP1 REVERT JUMPDEST PUSH2 0x43 PUSH2 0x63 JUMP JUMPDEST STOP JUMPDEST PUSH2 0x4D PUSH2 0x9B JUMP JUMPDEST PUSH1 0x40 MLOAD PUSH2 0x5A SWAP2 SWAP1 PUSH2 0xC0 JUMP JUMPDEST PUSH1 0x40 MLOAD DUP1 SWAP2 SUB SWAP1 RETURN JUMPDEST PUSH1 0x0 PUSH1 0x2 DUP2 GT ISZERO PUSH2 0x77 JUMPI PUSH2 0x76 PUSH2 0x100 JUMP JUMPDEST JUMPDEST PUSH1 0x0 DUP1 SLOAD SWAP1 PUSH2 0x100 EXP SWAP1 DIV PUSH1 0xFF AND PUSH1 0x2 DUP2 GT ISZERO PUSH2 0x97 JUMPI PUSH2 0x96 PUSH2 0x100 JUMP JUMPDEST JUMPDEST POP POP JUMP JUMPDEST PUSH1 0x0 DUP1 PUSH1 0x0 SWAP1 SLOAD SWAP1 PUSH2 0x100 EXP SWAP1 DIV PUSH1 0xFF AND SWAP1 POP SWAP1 JUMP JUMPDEST PUSH2 0xBA DUP2 PUSH2 0xEE JUMP JUMPDEST DUP3 MSTORE POP POP JUMP JUMPDEST PUSH1 0x0 PUSH1 0x20 DUP3 ADD SWAP1 POP PUSH2 0xD5 PUSH1 0x0 DUP4 ADD DUP5 PUSH2 0xB1 JUMP JUMPDEST SWAP3 SWAP2 POP POP JUMP JUMPDEST PUSH1 0x0 DUP2 SWAP1 POP PUSH2 0xE9 DUP3 PUSH2 0x12F JUMP JUMPDEST SWAP2 SWAP1 POP JUMP JUMPDEST PUSH1 0x0 PUSH2 0xF9 DUP3 PUSH2 0xDB JUMP JUMPDEST SWAP1 POP SWAP2 SWAP1 POP JUMP JUMPDEST PUSH32 0x4E487B7100000000000000000000000000000000000000000000000000000000 PUSH1 0x0 MSTORE PUSH1 0x21 PUSH1 0x4 MSTORE PUSH1 0x24 PUSH1 0x0 REVERT JUMPDEST PUSH1 0x3 DUP2 LT PUSH2 0x140 JUMPI PUSH2 0x13F PUSH2 0x100 JUMP JUMPDEST JUMPDEST POP JUMP INVALID LOG2 PUSH5 0x6970667358 0x22 SLT KECCAK256 ADDRESS 0x26 PUSH2 0x921B 0xDD ORIGIN 0xB1 CREATE2 0x24 SWAP9 0xC9 CHAINID 0xD SWAP2 0xAD 0xF7 0xB8 SWAP11 SHL SWAP7 XOR ORIGIN LOG3 0xD0 PUSH14 0x6CE2E211565E64736F6C63430008 SMOD STOP CALLER "
				},
				"gasEstimates": {
					"creation": {
						"codeDepositCost": "75400",
						"executionCost": "24422",
						"totalCost": "99822"
					},
					"external": {
						"get_person()": "2568",
						"promote_person()": "2342"
					}
				},
				"methodIdentifiers": {
					"get_person()": "c2dc6e51",
					"promote_person()": "2c1a9a07"
				}
			},
			"storageLayout": {
				"storage": [
					{
						"astId": 8,
						"contract": "contracts/enum.sol:enum_tutorial",
						"label": "person",
						"offset": 0,
						"slot": "0",
						"type": "t_enum(PersonType)5"
					}
				],
				"types": {
					"t_enum(PersonType)5": {
						"encoding": "inplace",
						"label": "enum enum_tutorial.PersonType",
						"numberOfBytes": "1"
					}
				}
			},
			"userdoc": {
				"kind": "user",
				"methods": {},
				"version": 1
			}
		}
	}
}