{
	"contracts/modifier.sol": {
		"maping": {
			"abi": [
				{
					"inputs": [],
					"stateMutability": "nonpayable",
					"type": "constructor"
				},
				{
					"inputs": [
						{
							"internalType": "string",
							"name": "firstname",
							"type": "string"
						},
						{
							"internalType": "string",
							"name": "lastname",
							"type": "string"
						}
					],
					"name": "add_person",
					"outputs": [],
					"stateMutability": "nonpayable",
					"type": "function"
				},
				{
					"inputs": [
						{
							"internalType": "uint256",
							"name": "",
							"type": "uint256"
						}
					],
					"name": "people",
					"outputs": [
						{
							"internalType": "string",
							"name": "firstname",
							"type": "string"
						},
						{
							"internalType": "string",
							"name": "lastname",
							"type": "string"
						}
					],
					"stateMutability": "view",
					"type": "function"
				},
				{
					"inputs": [],
					"name": "people_count",
					"outputs": [
						{
							"internalType": "uint256",
							"name": "",
							"type": "uint256"
						}
					],
					"stateMutability": "view",
					"type": "function"
				}
			],
			"devdoc": {
				"kind": "dev",
				"methods": {},
				"version": 1
			},
			"evm": {
				"assembly": "    /* \"contracts/modifier.sol\":56:755  contract maping\r... */\n  mstore(0x40, 0x80)\n    /* \"contracts/modifier.sol\":107:108  0 */\n  0x00\n    /* \"contracts/modifier.sol\":80:108  uint public people_count = 0 */\n  dup1\n  sstore\n    /* \"contracts/modifier.sol\":179:271  constructor() public\r... */\n  callvalue\n  dup1\n  iszero\n  tag_1\n  jumpi\n  0x00\n  dup1\n  revert\ntag_1:\n  pop\n    /* \"contracts/modifier.sol\":253:263  msg.sender */\n  caller\n    /* \"contracts/modifier.sol\":245:250  owner */\n  0x01\n  0x00\n    /* \"contracts/modifier.sol\":245:263  owner = msg.sender */\n  0x0100\n  exp\n  dup2\n  sload\n  dup2\n  0xffffffffffffffffffffffffffffffffffffffff\n  mul\n  not\n  and\n  swap1\n  dup4\n  0xffffffffffffffffffffffffffffffffffffffff\n  and\n  mul\n  or\n  swap1\n  sstore\n  pop\n    /* \"contracts/modifier.sol\":56:755  contract maping\r... */\n  dataSize(sub_0)\n  dup1\n  dataOffset(sub_0)\n  0x00\n  codecopy\n  0x00\n  return\nstop\n\nsub_0: assembly {\n        /* \"contracts/modifier.sol\":56:755  contract maping\r... */\n      mstore(0x40, 0x80)\n      callvalue\n      dup1\n      iszero\n      tag_1\n      jumpi\n      0x00\n      dup1\n      revert\n    tag_1:\n      pop\n      jumpi(tag_2, lt(calldatasize, 0x04))\n      shr(0xe0, calldataload(0x00))\n      dup1\n      0x7b95d97d\n      eq\n      tag_3\n      jumpi\n      dup1\n      0x9174a36f\n      eq\n      tag_4\n      jumpi\n      dup1\n      0x9e7a13ad\n      eq\n      tag_5\n      jumpi\n    tag_2:\n      0x00\n      dup1\n      revert\n        /* \"contracts/modifier.sol\":80:108  uint public people_count = 0 */\n    tag_3:\n      tag_6\n      tag_7\n      jump\t// in\n    tag_6:\n      mload(0x40)\n      tag_8\n      swap2\n      swap1\n      tag_9\n      jump\t// in\n    tag_8:\n      mload(0x40)\n      dup1\n      swap2\n      sub\n      swap1\n      return\n        /* \"contracts/modifier.sol\":459:653  function add_person(string memory firstname, string memory lastname) public OnlyOwner\r... */\n    tag_4:\n      tag_10\n      0x04\n      dup1\n      calldatasize\n      sub\n      dup2\n      add\n      swap1\n      tag_11\n      swap2\n      swap1\n      tag_12\n      jump\t// in\n    tag_11:\n      tag_13\n      jump\t// in\n    tag_10:\n      stop\n        /* \"contracts/modifier.sol\":135:170  mapping(uint=>person) public people */\n    tag_5:\n      tag_14\n      0x04\n      dup1\n      calldatasize\n      sub\n      dup2\n      add\n      swap1\n      tag_15\n      swap2\n      swap1\n      tag_16\n      jump\t// in\n    tag_15:\n      tag_17\n      jump\t// in\n    tag_14:\n      mload(0x40)\n      tag_18\n      swap3\n      swap2\n      swap1\n      tag_19\n      jump\t// in\n    tag_18:\n      mload(0x40)\n      dup1\n      swap2\n      sub\n      swap1\n      return\n        /* \"contracts/modifier.sol\":80:108  uint public people_count = 0 */\n    tag_7:\n      sload(0x00)\n      dup2\n      jump\t// out\n        /* \"contracts/modifier.sol\":459:653  function add_person(string memory firstname, string memory lastname) public OnlyOwner\r... */\n    tag_13:\n        /* \"contracts/modifier.sol\":336:341  owner */\n      0x01\n      0x00\n      swap1\n      sload\n      swap1\n      0x0100\n      exp\n      swap1\n      div\n      0xffffffffffffffffffffffffffffffffffffffff\n      and\n        /* \"contracts/modifier.sol\":322:341  msg.sender == owner */\n      0xffffffffffffffffffffffffffffffffffffffff\n      and\n        /* \"contracts/modifier.sol\":322:332  msg.sender */\n      caller\n        /* \"contracts/modifier.sol\":322:341  msg.sender == owner */\n      0xffffffffffffffffffffffffffffffffffffffff\n      and\n      eq\n        /* \"contracts/modifier.sol\":314:343  require(msg.sender == owner ) */\n      tag_21\n      jumpi\n      0x00\n      dup1\n      revert\n    tag_21:\n        /* \"contracts/modifier.sol\":561:578  increment_count() */\n      tag_23\n        /* \"contracts/modifier.sol\":561:576  increment_count */\n      tag_24\n        /* \"contracts/modifier.sol\":561:578  increment_count() */\n      jump\t// in\n    tag_23:\n        /* \"contracts/modifier.sol\":612:638  person(firstname,lastname) */\n      mload(0x40)\n      dup1\n      0x40\n      add\n      0x40\n      mstore\n      dup1\n        /* \"contracts/modifier.sol\":619:628  firstname */\n      dup4\n        /* \"contracts/modifier.sol\":612:638  person(firstname,lastname) */\n      dup2\n      mstore\n      0x20\n      add\n        /* \"contracts/modifier.sol\":629:637  lastname */\n      dup3\n        /* \"contracts/modifier.sol\":612:638  person(firstname,lastname) */\n      dup2\n      mstore\n      pop\n        /* \"contracts/modifier.sol\":589:595  people */\n      0x02\n        /* \"contracts/modifier.sol\":589:609  people[people_count] */\n      0x00\n        /* \"contracts/modifier.sol\":596:608  people_count */\n      dup1\n      sload\n        /* \"contracts/modifier.sol\":589:609  people[people_count] */\n      dup2\n      mstore\n      0x20\n      add\n      swap1\n      dup2\n      mstore\n      0x20\n      add\n      0x00\n      keccak256\n        /* \"contracts/modifier.sol\":589:638  people[people_count] = person(firstname,lastname) */\n      0x00\n      dup3\n      add\n      mload\n      dup2\n      0x00\n      add\n      swap1\n      dup1\n      mload\n      swap1\n      0x20\n      add\n      swap1\n      tag_25\n      swap3\n      swap2\n      swap1\n      tag_26\n      jump\t// in\n    tag_25:\n      pop\n      0x20\n      dup3\n      add\n      mload\n      dup2\n      0x01\n      add\n      swap1\n      dup1\n      mload\n      swap1\n      0x20\n      add\n      swap1\n      tag_27\n      swap3\n      swap2\n      swap1\n      tag_26\n      jump\t// in\n    tag_27:\n      pop\n      swap1\n      pop\n      pop\n        /* \"contracts/modifier.sol\":459:653  function add_person(string memory firstname, string memory lastname) public OnlyOwner\r... */\n      pop\n      pop\n      jump\t// out\n        /* \"contracts/modifier.sol\":135:170  mapping(uint=>person) public people */\n    tag_17:\n      mstore(0x20, 0x02)\n      dup1\n      0x00\n      mstore\n      keccak256(0x00, 0x40)\n      0x00\n      swap2\n      pop\n      swap1\n      pop\n      dup1\n      0x00\n      add\n      dup1\n      sload\n      tag_28\n      swap1\n      tag_29\n      jump\t// in\n    tag_28:\n      dup1\n      0x1f\n      add\n      0x20\n      dup1\n      swap2\n      div\n      mul\n      0x20\n      add\n      mload(0x40)\n      swap1\n      dup2\n      add\n      0x40\n      mstore\n      dup1\n      swap3\n      swap2\n      swap1\n      dup2\n      dup2\n      mstore\n      0x20\n      add\n      dup3\n      dup1\n      sload\n      tag_30\n      swap1\n      tag_29\n      jump\t// in\n    tag_30:\n      dup1\n      iszero\n      tag_31\n      jumpi\n      dup1\n      0x1f\n      lt\n      tag_32\n      jumpi\n      0x0100\n      dup1\n      dup4\n      sload\n      div\n      mul\n      dup4\n      mstore\n      swap2\n      0x20\n      add\n      swap2\n      jump(tag_31)\n    tag_32:\n      dup3\n      add\n      swap2\n      swap1\n      0x00\n      mstore\n      keccak256(0x00, 0x20)\n      swap1\n    tag_33:\n      dup2\n      sload\n      dup2\n      mstore\n      swap1\n      0x01\n      add\n      swap1\n      0x20\n      add\n      dup1\n      dup4\n      gt\n      tag_33\n      jumpi\n      dup3\n      swap1\n      sub\n      0x1f\n      and\n      dup3\n      add\n      swap2\n    tag_31:\n      pop\n      pop\n      pop\n      pop\n      pop\n      swap1\n      dup1\n      0x01\n      add\n      dup1\n      sload\n      tag_34\n      swap1\n      tag_29\n      jump\t// in\n    tag_34:\n      dup1\n      0x1f\n      add\n      0x20\n      dup1\n      swap2\n      div\n      mul\n      0x20\n      add\n      mload(0x40)\n      swap1\n      dup2\n      add\n      0x40\n      mstore\n      dup1\n      swap3\n      swap2\n      swap1\n      dup2\n      dup2\n      mstore\n      0x20\n      add\n      dup3\n      dup1\n      sload\n      tag_35\n      swap1\n      tag_29\n      jump\t// in\n    tag_35:\n      dup1\n      iszero\n      tag_36\n      jumpi\n      dup1\n      0x1f\n      lt\n      tag_37\n      jumpi\n      0x0100\n      dup1\n      dup4\n      sload\n      div\n      mul\n      dup4\n      mstore\n      swap2\n      0x20\n      add\n      swap2\n      jump(tag_36)\n    tag_37:\n      dup3\n      add\n      swap2\n      swap1\n      0x00\n      mstore\n      keccak256(0x00, 0x20)\n      swap1\n    tag_38:\n      dup2\n      sload\n      dup2\n      mstore\n      swap1\n      0x01\n      add\n      swap1\n      0x20\n      add\n      dup1\n      dup4\n      gt\n      tag_38\n      jumpi\n      dup3\n      swap1\n      sub\n      0x1f\n      and\n      dup3\n      add\n      swap2\n    tag_36:\n      pop\n      pop\n      pop\n      pop\n      pop\n      swap1\n      pop\n      dup3\n      jump\t// out\n        /* \"contracts/modifier.sol\":661:752  function increment_count() internal\r... */\n    tag_24:\n        /* \"contracts/modifier.sol\":743:744  1 */\n      0x01\n        /* \"contracts/modifier.sol\":728:740  people_count */\n      sload(0x00)\n        /* \"contracts/modifier.sol\":728:744  people_count + 1 */\n      tag_40\n      swap2\n      swap1\n      tag_41\n      jump\t// in\n    tag_40:\n        /* \"contracts/modifier.sol\":713:725  people_count */\n      0x00\n        /* \"contracts/modifier.sol\":713:744  people_count = people_count + 1 */\n      dup2\n      swap1\n      sstore\n      pop\n        /* \"contracts/modifier.sol\":661:752  function increment_count() internal\r... */\n      jump\t// out\n    tag_26:\n      dup3\n      dup1\n      sload\n      tag_42\n      swap1\n      tag_29\n      jump\t// in\n    tag_42:\n      swap1\n      0x00\n      mstore\n      keccak256(0x00, 0x20)\n      swap1\n      0x1f\n      add\n      0x20\n      swap1\n      div\n      dup2\n      add\n      swap3\n      dup3\n      tag_44\n      jumpi\n      0x00\n      dup6\n      sstore\n      jump(tag_43)\n    tag_44:\n      dup3\n      0x1f\n      lt\n      tag_45\n      jumpi\n      dup1\n      mload\n      not(0xff)\n      and\n      dup4\n      dup1\n      add\n      or\n      dup6\n      sstore\n      jump(tag_43)\n    tag_45:\n      dup3\n      dup1\n      add\n      0x01\n      add\n      dup6\n      sstore\n      dup3\n      iszero\n      tag_43\n      jumpi\n      swap2\n      dup3\n      add\n    tag_46:\n      dup3\n      dup2\n      gt\n      iszero\n      tag_47\n      jumpi\n      dup3\n      mload\n      dup3\n      sstore\n      swap2\n      0x20\n      add\n      swap2\n      swap1\n      0x01\n      add\n      swap1\n      jump(tag_46)\n    tag_47:\n    tag_43:\n      pop\n      swap1\n      pop\n      tag_48\n      swap2\n      swap1\n      tag_49\n      jump\t// in\n    tag_48:\n      pop\n      swap1\n      jump\t// out\n    tag_49:\n    tag_50:\n      dup1\n      dup3\n      gt\n      iszero\n      tag_51\n      jumpi\n      0x00\n      dup2\n      0x00\n      swap1\n      sstore\n      pop\n      0x01\n      add\n      jump(tag_50)\n    tag_51:\n      pop\n      swap1\n      jump\t// out\n        /* \"#utility.yul\":7:419   */\n    tag_53:\n        /* \"#utility.yul\":85:90   */\n      0x00\n        /* \"#utility.yul\":110:176   */\n      tag_55\n        /* \"#utility.yul\":126:175   */\n      tag_56\n        /* \"#utility.yul\":168:174   */\n      dup5\n        /* \"#utility.yul\":126:175   */\n      tag_57\n      jump\t// in\n    tag_56:\n        /* \"#utility.yul\":110:176   */\n      tag_58\n      jump\t// in\n    tag_55:\n        /* \"#utility.yul\":101:176   */\n      swap1\n      pop\n        /* \"#utility.yul\":199:205   */\n      dup3\n        /* \"#utility.yul\":192:197   */\n      dup2\n        /* \"#utility.yul\":185:206   */\n      mstore\n        /* \"#utility.yul\":237:241   */\n      0x20\n        /* \"#utility.yul\":230:235   */\n      dup2\n        /* \"#utility.yul\":226:242   */\n      add\n        /* \"#utility.yul\":275:278   */\n      dup5\n        /* \"#utility.yul\":266:272   */\n      dup5\n        /* \"#utility.yul\":261:264   */\n      dup5\n        /* \"#utility.yul\":257:273   */\n      add\n        /* \"#utility.yul\":254:279   */\n      gt\n        /* \"#utility.yul\":251:363   */\n      iszero\n      tag_59\n      jumpi\n        /* \"#utility.yul\":282:361   */\n      tag_60\n      tag_61\n      jump\t// in\n    tag_60:\n        /* \"#utility.yul\":251:363   */\n    tag_59:\n        /* \"#utility.yul\":372:413   */\n      tag_62\n        /* \"#utility.yul\":406:412   */\n      dup5\n        /* \"#utility.yul\":401:404   */\n      dup3\n        /* \"#utility.yul\":396:399   */\n      dup6\n        /* \"#utility.yul\":372:413   */\n      tag_63\n      jump\t// in\n    tag_62:\n        /* \"#utility.yul\":91:419   */\n      pop\n        /* \"#utility.yul\":7:419   */\n      swap4\n      swap3\n      pop\n      pop\n      pop\n      jump\t// out\n        /* \"#utility.yul\":439:779   */\n    tag_64:\n        /* \"#utility.yul\":495:500   */\n      0x00\n        /* \"#utility.yul\":544:547   */\n      dup3\n        /* \"#utility.yul\":537:541   */\n      0x1f\n        /* \"#utility.yul\":529:535   */\n      dup4\n        /* \"#utility.yul\":525:542   */\n      add\n        /* \"#utility.yul\":521:548   */\n      slt\n        /* \"#utility.yul\":511:633   */\n      tag_66\n      jumpi\n        /* \"#utility.yul\":552:631   */\n      tag_67\n      tag_68\n      jump\t// in\n    tag_67:\n        /* \"#utility.yul\":511:633   */\n    tag_66:\n        /* \"#utility.yul\":669:675   */\n      dup2\n        /* \"#utility.yul\":656:676   */\n      calldataload\n        /* \"#utility.yul\":694:773   */\n      tag_69\n        /* \"#utility.yul\":769:772   */\n      dup5\n        /* \"#utility.yul\":761:767   */\n      dup3\n        /* \"#utility.yul\":754:758   */\n      0x20\n        /* \"#utility.yul\":746:752   */\n      dup7\n        /* \"#utility.yul\":742:759   */\n      add\n        /* \"#utility.yul\":694:773   */\n      tag_53\n      jump\t// in\n    tag_69:\n        /* \"#utility.yul\":685:773   */\n      swap2\n      pop\n        /* \"#utility.yul\":501:779   */\n      pop\n        /* \"#utility.yul\":439:779   */\n      swap3\n      swap2\n      pop\n      pop\n      jump\t// out\n        /* \"#utility.yul\":785:924   */\n    tag_70:\n        /* \"#utility.yul\":831:836   */\n      0x00\n        /* \"#utility.yul\":869:875   */\n      dup2\n        /* \"#utility.yul\":856:876   */\n      calldataload\n        /* \"#utility.yul\":847:876   */\n      swap1\n      pop\n        /* \"#utility.yul\":885:918   */\n      tag_72\n        /* \"#utility.yul\":912:917   */\n      dup2\n        /* \"#utility.yul\":885:918   */\n      tag_73\n      jump\t// in\n    tag_72:\n        /* \"#utility.yul\":785:924   */\n      swap3\n      swap2\n      pop\n      pop\n      jump\t// out\n        /* \"#utility.yul\":930:1764   */\n    tag_12:\n        /* \"#utility.yul\":1018:1024   */\n      0x00\n        /* \"#utility.yul\":1026:1032   */\n      dup1\n        /* \"#utility.yul\":1075:1077   */\n      0x40\n        /* \"#utility.yul\":1063:1072   */\n      dup4\n        /* \"#utility.yul\":1054:1061   */\n      dup6\n        /* \"#utility.yul\":1050:1073   */\n      sub\n        /* \"#utility.yul\":1046:1078   */\n      slt\n        /* \"#utility.yul\":1043:1162   */\n      iszero\n      tag_75\n      jumpi\n        /* \"#utility.yul\":1081:1160   */\n      tag_76\n      tag_77\n      jump\t// in\n    tag_76:\n        /* \"#utility.yul\":1043:1162   */\n    tag_75:\n        /* \"#utility.yul\":1229:1230   */\n      0x00\n        /* \"#utility.yul\":1218:1227   */\n      dup4\n        /* \"#utility.yul\":1214:1231   */\n      add\n        /* \"#utility.yul\":1201:1232   */\n      calldataload\n        /* \"#utility.yul\":1259:1277   */\n      0xffffffffffffffff\n        /* \"#utility.yul\":1251:1257   */\n      dup2\n        /* \"#utility.yul\":1248:1278   */\n      gt\n        /* \"#utility.yul\":1245:1362   */\n      iszero\n      tag_78\n      jumpi\n        /* \"#utility.yul\":1281:1360   */\n      tag_79\n      tag_80\n      jump\t// in\n    tag_79:\n        /* \"#utility.yul\":1245:1362   */\n    tag_78:\n        /* \"#utility.yul\":1386:1449   */\n      tag_81\n        /* \"#utility.yul\":1441:1448   */\n      dup6\n        /* \"#utility.yul\":1432:1438   */\n      dup3\n        /* \"#utility.yul\":1421:1430   */\n      dup7\n        /* \"#utility.yul\":1417:1439   */\n      add\n        /* \"#utility.yul\":1386:1449   */\n      tag_64\n      jump\t// in\n    tag_81:\n        /* \"#utility.yul\":1376:1449   */\n      swap3\n      pop\n        /* \"#utility.yul\":1172:1459   */\n      pop\n        /* \"#utility.yul\":1526:1528   */\n      0x20\n        /* \"#utility.yul\":1515:1524   */\n      dup4\n        /* \"#utility.yul\":1511:1529   */\n      add\n        /* \"#utility.yul\":1498:1530   */\n      calldataload\n        /* \"#utility.yul\":1557:1575   */\n      0xffffffffffffffff\n        /* \"#utility.yul\":1549:1555   */\n      dup2\n        /* \"#utility.yul\":1546:1576   */\n      gt\n        /* \"#utility.yul\":1543:1660   */\n      iszero\n      tag_82\n      jumpi\n        /* \"#utility.yul\":1579:1658   */\n      tag_83\n      tag_80\n      jump\t// in\n    tag_83:\n        /* \"#utility.yul\":1543:1660   */\n    tag_82:\n        /* \"#utility.yul\":1684:1747   */\n      tag_84\n        /* \"#utility.yul\":1739:1746   */\n      dup6\n        /* \"#utility.yul\":1730:1736   */\n      dup3\n        /* \"#utility.yul\":1719:1728   */\n      dup7\n        /* \"#utility.yul\":1715:1737   */\n      add\n        /* \"#utility.yul\":1684:1747   */\n      tag_64\n      jump\t// in\n    tag_84:\n        /* \"#utility.yul\":1674:1747   */\n      swap2\n      pop\n        /* \"#utility.yul\":1469:1757   */\n      pop\n        /* \"#utility.yul\":930:1764   */\n      swap3\n      pop\n      swap3\n      swap1\n      pop\n      jump\t// out\n        /* \"#utility.yul\":1770:2099   */\n    tag_16:\n        /* \"#utility.yul\":1829:1835   */\n      0x00\n        /* \"#utility.yul\":1878:1880   */\n      0x20\n        /* \"#utility.yul\":1866:1875   */\n      dup3\n        /* \"#utility.yul\":1857:1864   */\n      dup5\n        /* \"#utility.yul\":1853:1876   */\n      sub\n        /* \"#utility.yul\":1849:1881   */\n      slt\n        /* \"#utility.yul\":1846:1965   */\n      iszero\n      tag_86\n      jumpi\n        /* \"#utility.yul\":1884:1963   */\n      tag_87\n      tag_77\n      jump\t// in\n    tag_87:\n        /* \"#utility.yul\":1846:1965   */\n    tag_86:\n        /* \"#utility.yul\":2004:2005   */\n      0x00\n        /* \"#utility.yul\":2029:2082   */\n      tag_88\n        /* \"#utility.yul\":2074:2081   */\n      dup5\n        /* \"#utility.yul\":2065:2071   */\n      dup3\n        /* \"#utility.yul\":2054:2063   */\n      dup6\n        /* \"#utility.yul\":2050:2072   */\n      add\n        /* \"#utility.yul\":2029:2082   */\n      tag_70\n      jump\t// in\n    tag_88:\n        /* \"#utility.yul\":2019:2082   */\n      swap2\n      pop\n        /* \"#utility.yul\":1975:2092   */\n      pop\n        /* \"#utility.yul\":1770:2099   */\n      swap3\n      swap2\n      pop\n      pop\n      jump\t// out\n        /* \"#utility.yul\":2105:2469   */\n    tag_89:\n        /* \"#utility.yul\":2193:2196   */\n      0x00\n        /* \"#utility.yul\":2221:2260   */\n      tag_91\n        /* \"#utility.yul\":2254:2259   */\n      dup3\n        /* \"#utility.yul\":2221:2260   */\n      tag_92\n      jump\t// in\n    tag_91:\n        /* \"#utility.yul\":2276:2347   */\n      tag_93\n        /* \"#utility.yul\":2340:2346   */\n      dup2\n        /* \"#utility.yul\":2335:2338   */\n      dup6\n        /* \"#utility.yul\":2276:2347   */\n      tag_94\n      jump\t// in\n    tag_93:\n        /* \"#utility.yul\":2269:2347   */\n      swap4\n      pop\n        /* \"#utility.yul\":2356:2408   */\n      tag_95\n        /* \"#utility.yul\":2401:2407   */\n      dup2\n        /* \"#utility.yul\":2396:2399   */\n      dup6\n        /* \"#utility.yul\":2389:2393   */\n      0x20\n        /* \"#utility.yul\":2382:2387   */\n      dup7\n        /* \"#utility.yul\":2378:2394   */\n      add\n        /* \"#utility.yul\":2356:2408   */\n      tag_96\n      jump\t// in\n    tag_95:\n        /* \"#utility.yul\":2433:2462   */\n      tag_97\n        /* \"#utility.yul\":2455:2461   */\n      dup2\n        /* \"#utility.yul\":2433:2462   */\n      tag_98\n      jump\t// in\n    tag_97:\n        /* \"#utility.yul\":2428:2431   */\n      dup5\n        /* \"#utility.yul\":2424:2463   */\n      add\n        /* \"#utility.yul\":2417:2463   */\n      swap2\n      pop\n        /* \"#utility.yul\":2197:2469   */\n      pop\n        /* \"#utility.yul\":2105:2469   */\n      swap3\n      swap2\n      pop\n      pop\n      jump\t// out\n        /* \"#utility.yul\":2475:2593   */\n    tag_99:\n        /* \"#utility.yul\":2562:2586   */\n      tag_101\n        /* \"#utility.yul\":2580:2585   */\n      dup2\n        /* \"#utility.yul\":2562:2586   */\n      tag_102\n      jump\t// in\n    tag_101:\n        /* \"#utility.yul\":2557:2560   */\n      dup3\n        /* \"#utility.yul\":2550:2587   */\n      mstore\n        /* \"#utility.yul\":2475:2593   */\n      pop\n      pop\n      jump\t// out\n        /* \"#utility.yul\":2599:3113   */\n    tag_19:\n        /* \"#utility.yul\":2760:2764   */\n      0x00\n        /* \"#utility.yul\":2798:2800   */\n      0x40\n        /* \"#utility.yul\":2787:2796   */\n      dup3\n        /* \"#utility.yul\":2783:2801   */\n      add\n        /* \"#utility.yul\":2775:2801   */\n      swap1\n      pop\n        /* \"#utility.yul\":2847:2856   */\n      dup2\n        /* \"#utility.yul\":2841:2845   */\n      dup2\n        /* \"#utility.yul\":2837:2857   */\n      sub\n        /* \"#utility.yul\":2833:2834   */\n      0x00\n        /* \"#utility.yul\":2822:2831   */\n      dup4\n        /* \"#utility.yul\":2818:2835   */\n      add\n        /* \"#utility.yul\":2811:2858   */\n      mstore\n        /* \"#utility.yul\":2875:2953   */\n      tag_104\n        /* \"#utility.yul\":2948:2952   */\n      dup2\n        /* \"#utility.yul\":2939:2945   */\n      dup6\n        /* \"#utility.yul\":2875:2953   */\n      tag_89\n      jump\t// in\n    tag_104:\n        /* \"#utility.yul\":2867:2953   */\n      swap1\n      pop\n        /* \"#utility.yul\":3000:3009   */\n      dup2\n        /* \"#utility.yul\":2994:2998   */\n      dup2\n        /* \"#utility.yul\":2990:3010   */\n      sub\n        /* \"#utility.yul\":2985:2987   */\n      0x20\n        /* \"#utility.yul\":2974:2983   */\n      dup4\n        /* \"#utility.yul\":2970:2988   */\n      add\n        /* \"#utility.yul\":2963:3011   */\n      mstore\n        /* \"#utility.yul\":3028:3106   */\n      tag_105\n        /* \"#utility.yul\":3101:3105   */\n      dup2\n        /* \"#utility.yul\":3092:3098   */\n      dup5\n        /* \"#utility.yul\":3028:3106   */\n      tag_89\n      jump\t// in\n    tag_105:\n        /* \"#utility.yul\":3020:3106   */\n      swap1\n      pop\n        /* \"#utility.yul\":2599:3113   */\n      swap4\n      swap3\n      pop\n      pop\n      pop\n      jump\t// out\n        /* \"#utility.yul\":3119:3341   */\n    tag_9:\n        /* \"#utility.yul\":3212:3216   */\n      0x00\n        /* \"#utility.yul\":3250:3252   */\n      0x20\n        /* \"#utility.yul\":3239:3248   */\n      dup3\n        /* \"#utility.yul\":3235:3253   */\n      add\n        /* \"#utility.yul\":3227:3253   */\n      swap1\n      pop\n        /* \"#utility.yul\":3263:3334   */\n      tag_107\n        /* \"#utility.yul\":3331:3332   */\n      0x00\n        /* \"#utility.yul\":3320:3329   */\n      dup4\n        /* \"#utility.yul\":3316:3333   */\n      add\n        /* \"#utility.yul\":3307:3313   */\n      dup5\n        /* \"#utility.yul\":3263:3334   */\n      tag_99\n      jump\t// in\n    tag_107:\n        /* \"#utility.yul\":3119:3341   */\n      swap3\n      swap2\n      pop\n      pop\n      jump\t// out\n        /* \"#utility.yul\":3347:3476   */\n    tag_58:\n        /* \"#utility.yul\":3381:3387   */\n      0x00\n        /* \"#utility.yul\":3408:3428   */\n      tag_109\n      tag_110\n      jump\t// in\n    tag_109:\n        /* \"#utility.yul\":3398:3428   */\n      swap1\n      pop\n        /* \"#utility.yul\":3437:3470   */\n      tag_111\n        /* \"#utility.yul\":3465:3469   */\n      dup3\n        /* \"#utility.yul\":3457:3463   */\n      dup3\n        /* \"#utility.yul\":3437:3470   */\n      tag_112\n      jump\t// in\n    tag_111:\n        /* \"#utility.yul\":3347:3476   */\n      swap2\n      swap1\n      pop\n      jump\t// out\n        /* \"#utility.yul\":3482:3557   */\n    tag_110:\n        /* \"#utility.yul\":3515:3521   */\n      0x00\n        /* \"#utility.yul\":3548:3550   */\n      0x40\n        /* \"#utility.yul\":3542:3551   */\n      mload\n        /* \"#utility.yul\":3532:3551   */\n      swap1\n      pop\n        /* \"#utility.yul\":3482:3557   */\n      swap1\n      jump\t// out\n        /* \"#utility.yul\":3563:3871   */\n    tag_57:\n        /* \"#utility.yul\":3625:3629   */\n      0x00\n        /* \"#utility.yul\":3715:3733   */\n      0xffffffffffffffff\n        /* \"#utility.yul\":3707:3713   */\n      dup3\n        /* \"#utility.yul\":3704:3734   */\n      gt\n        /* \"#utility.yul\":3701:3757   */\n      iszero\n      tag_115\n      jumpi\n        /* \"#utility.yul\":3737:3755   */\n      tag_116\n      tag_117\n      jump\t// in\n    tag_116:\n        /* \"#utility.yul\":3701:3757   */\n    tag_115:\n        /* \"#utility.yul\":3775:3804   */\n      tag_118\n        /* \"#utility.yul\":3797:3803   */\n      dup3\n        /* \"#utility.yul\":3775:3804   */\n      tag_98\n      jump\t// in\n    tag_118:\n        /* \"#utility.yul\":3767:3804   */\n      swap1\n      pop\n        /* \"#utility.yul\":3859:3863   */\n      0x20\n        /* \"#utility.yul\":3853:3857   */\n      dup2\n        /* \"#utility.yul\":3849:3864   */\n      add\n        /* \"#utility.yul\":3841:3864   */\n      swap1\n      pop\n        /* \"#utility.yul\":3563:3871   */\n      swap2\n      swap1\n      pop\n      jump\t// out\n        /* \"#utility.yul\":3877:3976   */\n    tag_92:\n        /* \"#utility.yul\":3929:3935   */\n      0x00\n        /* \"#utility.yul\":3963:3968   */\n      dup2\n        /* \"#utility.yul\":3957:3969   */\n      mload\n        /* \"#utility.yul\":3947:3969   */\n      swap1\n      pop\n        /* \"#utility.yul\":3877:3976   */\n      swap2\n      swap1\n      pop\n      jump\t// out\n        /* \"#utility.yul\":3982:4151   */\n    tag_94:\n        /* \"#utility.yul\":4066:4077   */\n      0x00\n        /* \"#utility.yul\":4100:4106   */\n      dup3\n        /* \"#utility.yul\":4095:4098   */\n      dup3\n        /* \"#utility.yul\":4088:4107   */\n      mstore\n        /* \"#utility.yul\":4140:4144   */\n      0x20\n        /* \"#utility.yul\":4135:4138   */\n      dup3\n        /* \"#utility.yul\":4131:4145   */\n      add\n        /* \"#utility.yul\":4116:4145   */\n      swap1\n      pop\n        /* \"#utility.yul\":3982:4151   */\n      swap3\n      swap2\n      pop\n      pop\n      jump\t// out\n        /* \"#utility.yul\":4157:4462   */\n    tag_41:\n        /* \"#utility.yul\":4197:4200   */\n      0x00\n        /* \"#utility.yul\":4216:4236   */\n      tag_122\n        /* \"#utility.yul\":4234:4235   */\n      dup3\n        /* \"#utility.yul\":4216:4236   */\n      tag_102\n      jump\t// in\n    tag_122:\n        /* \"#utility.yul\":4211:4236   */\n      swap2\n      pop\n        /* \"#utility.yul\":4250:4270   */\n      tag_123\n        /* \"#utility.yul\":4268:4269   */\n      dup4\n        /* \"#utility.yul\":4250:4270   */\n      tag_102\n      jump\t// in\n    tag_123:\n        /* \"#utility.yul\":4245:4270   */\n      swap3\n      pop\n        /* \"#utility.yul\":4404:4405   */\n      dup3\n        /* \"#utility.yul\":4336:4402   */\n      0xffffffffffffffffffffffffffffffffffffffffffffffffffffffffffffffff\n        /* \"#utility.yul\":4332:4406   */\n      sub\n        /* \"#utility.yul\":4329:4330   */\n      dup3\n        /* \"#utility.yul\":4326:4407   */\n      gt\n        /* \"#utility.yul\":4323:4430   */\n      iszero\n      tag_124\n      jumpi\n        /* \"#utility.yul\":4410:4428   */\n      tag_125\n      tag_126\n      jump\t// in\n    tag_125:\n        /* \"#utility.yul\":4323:4430   */\n    tag_124:\n        /* \"#utility.yul\":4454:4455   */\n      dup3\n        /* \"#utility.yul\":4451:4452   */\n      dup3\n        /* \"#utility.yul\":4447:4456   */\n      add\n        /* \"#utility.yul\":4440:4456   */\n      swap1\n      pop\n        /* \"#utility.yul\":4157:4462   */\n      swap3\n      swap2\n      pop\n      pop\n      jump\t// out\n        /* \"#utility.yul\":4468:4545   */\n    tag_102:\n        /* \"#utility.yul\":4505:4512   */\n      0x00\n        /* \"#utility.yul\":4534:4539   */\n      dup2\n        /* \"#utility.yul\":4523:4539   */\n      swap1\n      pop\n        /* \"#utility.yul\":4468:4545   */\n      swap2\n      swap1\n      pop\n      jump\t// out\n        /* \"#utility.yul\":4551:4705   */\n    tag_63:\n        /* \"#utility.yul\":4635:4641   */\n      dup3\n        /* \"#utility.yul\":4630:4633   */\n      dup2\n        /* \"#utility.yul\":4625:4628   */\n      dup4\n        /* \"#utility.yul\":4612:4642   */\n      calldatacopy\n        /* \"#utility.yul\":4697:4698   */\n      0x00\n        /* \"#utility.yul\":4688:4694   */\n      dup4\n        /* \"#utility.yul\":4683:4686   */\n      dup4\n        /* \"#utility.yul\":4679:4695   */\n      add\n        /* \"#utility.yul\":4672:4699   */\n      mstore\n        /* \"#utility.yul\":4551:4705   */\n      pop\n      pop\n      pop\n      jump\t// out\n        /* \"#utility.yul\":4711:5018   */\n    tag_96:\n        /* \"#utility.yul\":4779:4780   */\n      0x00\n        /* \"#utility.yul\":4789:4902   */\n    tag_130:\n        /* \"#utility.yul\":4803:4809   */\n      dup4\n        /* \"#utility.yul\":4800:4801   */\n      dup2\n        /* \"#utility.yul\":4797:4810   */\n      lt\n        /* \"#utility.yul\":4789:4902   */\n      iszero\n      tag_132\n      jumpi\n        /* \"#utility.yul\":4888:4889   */\n      dup1\n        /* \"#utility.yul\":4883:4886   */\n      dup3\n        /* \"#utility.yul\":4879:4890   */\n      add\n        /* \"#utility.yul\":4873:4891   */\n      mload\n        /* \"#utility.yul\":4869:4870   */\n      dup2\n        /* \"#utility.yul\":4864:4867   */\n      dup5\n        /* \"#utility.yul\":4860:4871   */\n      add\n        /* \"#utility.yul\":4853:4892   */\n      mstore\n        /* \"#utility.yul\":4825:4827   */\n      0x20\n        /* \"#utility.yul\":4822:4823   */\n      dup2\n        /* \"#utility.yul\":4818:4828   */\n      add\n        /* \"#utility.yul\":4813:4828   */\n      swap1\n      pop\n        /* \"#utility.yul\":4789:4902   */\n      jump(tag_130)\n    tag_132:\n        /* \"#utility.yul\":4920:4926   */\n      dup4\n        /* \"#utility.yul\":4917:4918   */\n      dup2\n        /* \"#utility.yul\":4914:4927   */\n      gt\n        /* \"#utility.yul\":4911:5012   */\n      iszero\n      tag_133\n      jumpi\n        /* \"#utility.yul\":5000:5001   */\n      0x00\n        /* \"#utility.yul\":4991:4997   */\n      dup5\n        /* \"#utility.yul\":4986:4989   */\n      dup5\n        /* \"#utility.yul\":4982:4998   */\n      add\n        /* \"#utility.yul\":4975:5002   */\n      mstore\n        /* \"#utility.yul\":4911:5012   */\n    tag_133:\n        /* \"#utility.yul\":4760:5018   */\n      pop\n        /* \"#utility.yul\":4711:5018   */\n      pop\n      pop\n      pop\n      jump\t// out\n        /* \"#utility.yul\":5024:5344   */\n    tag_29:\n        /* \"#utility.yul\":5068:5074   */\n      0x00\n        /* \"#utility.yul\":5105:5106   */\n      0x02\n        /* \"#utility.yul\":5099:5103   */\n      dup3\n        /* \"#utility.yul\":5095:5107   */\n      div\n        /* \"#utility.yul\":5085:5107   */\n      swap1\n      pop\n        /* \"#utility.yul\":5152:5153   */\n      0x01\n        /* \"#utility.yul\":5146:5150   */\n      dup3\n        /* \"#utility.yul\":5142:5154   */\n      and\n        /* \"#utility.yul\":5173:5191   */\n      dup1\n        /* \"#utility.yul\":5163:5244   */\n      tag_135\n      jumpi\n        /* \"#utility.yul\":5229:5233   */\n      0x7f\n        /* \"#utility.yul\":5221:5227   */\n      dup3\n        /* \"#utility.yul\":5217:5234   */\n      and\n        /* \"#utility.yul\":5207:5234   */\n      swap2\n      pop\n        /* \"#utility.yul\":5163:5244   */\n    tag_135:\n        /* \"#utility.yul\":5291:5293   */\n      0x20\n        /* \"#utility.yul\":5283:5289   */\n      dup3\n        /* \"#utility.yul\":5280:5294   */\n      lt\n        /* \"#utility.yul\":5260:5278   */\n      dup2\n        /* \"#utility.yul\":5257:5295   */\n      eq\n        /* \"#utility.yul\":5254:5338   */\n      iszero\n      tag_136\n      jumpi\n        /* \"#utility.yul\":5310:5328   */\n      tag_137\n      tag_138\n      jump\t// in\n    tag_137:\n        /* \"#utility.yul\":5254:5338   */\n    tag_136:\n        /* \"#utility.yul\":5075:5344   */\n      pop\n        /* \"#utility.yul\":5024:5344   */\n      swap2\n      swap1\n      pop\n      jump\t// out\n        /* \"#utility.yul\":5350:5631   */\n    tag_112:\n        /* \"#utility.yul\":5433:5460   */\n      tag_140\n        /* \"#utility.yul\":5455:5459   */\n      dup3\n        /* \"#utility.yul\":5433:5460   */\n      tag_98\n      jump\t// in\n    tag_140:\n        /* \"#utility.yul\":5425:5431   */\n      dup2\n        /* \"#utility.yul\":5421:5461   */\n      add\n        /* \"#utility.yul\":5563:5569   */\n      dup2\n        /* \"#utility.yul\":5551:5561   */\n      dup2\n        /* \"#utility.yul\":5548:5570   */\n      lt\n        /* \"#utility.yul\":5527:5545   */\n      0xffffffffffffffff\n        /* \"#utility.yul\":5515:5525   */\n      dup3\n        /* \"#utility.yul\":5512:5546   */\n      gt\n        /* \"#utility.yul\":5509:5571   */\n      or\n        /* \"#utility.yul\":5506:5594   */\n      iszero\n      tag_141\n      jumpi\n        /* \"#utility.yul\":5574:5592   */\n      tag_142\n      tag_117\n      jump\t// in\n    tag_142:\n        /* \"#utility.yul\":5506:5594   */\n    tag_141:\n        /* \"#utility.yul\":5614:5624   */\n      dup1\n        /* \"#utility.yul\":5610:5612   */\n      0x40\n        /* \"#utility.yul\":5603:5625   */\n      mstore\n        /* \"#utility.yul\":5393:5631   */\n      pop\n        /* \"#utility.yul\":5350:5631   */\n      pop\n      pop\n      jump\t// out\n        /* \"#utility.yul\":5637:5817   */\n    tag_126:\n        /* \"#utility.yul\":5685:5762   */\n      0x4e487b7100000000000000000000000000000000000000000000000000000000\n        /* \"#utility.yul\":5682:5683   */\n      0x00\n        /* \"#utility.yul\":5675:5763   */\n      mstore\n        /* \"#utility.yul\":5782:5786   */\n      0x11\n        /* \"#utility.yul\":5779:5780   */\n      0x04\n        /* \"#utility.yul\":5772:5787   */\n      mstore\n        /* \"#utility.yul\":5806:5810   */\n      0x24\n        /* \"#utility.yul\":5803:5804   */\n      0x00\n        /* \"#utility.yul\":5796:5811   */\n      revert\n        /* \"#utility.yul\":5823:6003   */\n    tag_138:\n        /* \"#utility.yul\":5871:5948   */\n      0x4e487b7100000000000000000000000000000000000000000000000000000000\n        /* \"#utility.yul\":5868:5869   */\n      0x00\n        /* \"#utility.yul\":5861:5949   */\n      mstore\n        /* \"#utility.yul\":5968:5972   */\n      0x22\n        /* \"#utility.yul\":5965:5966   */\n      0x04\n        /* \"#utility.yul\":5958:5973   */\n      mstore\n        /* \"#utility.yul\":5992:5996   */\n      0x24\n        /* \"#utility.yul\":5989:5990   */\n      0x00\n        /* \"#utility.yul\":5982:5997   */\n      revert\n        /* \"#utility.yul\":6009:6189   */\n    tag_117:\n        /* \"#utility.yul\":6057:6134   */\n      0x4e487b7100000000000000000000000000000000000000000000000000000000\n        /* \"#utility.yul\":6054:6055   */\n      0x00\n        /* \"#utility.yul\":6047:6135   */\n      mstore\n        /* \"#utility.yul\":6154:6158   */\n      0x41\n        /* \"#utility.yul\":6151:6152   */\n      0x04\n        /* \"#utility.yul\":6144:6159   */\n      mstore\n        /* \"#utility.yul\":6178:6182   */\n      0x24\n        /* \"#utility.yul\":6175:6176   */\n      0x00\n        /* \"#utility.yul\":6168:6183   */\n      revert\n        /* \"#utility.yul\":6195:6312   */\n    tag_68:\n        /* \"#utility.yul\":6304:6305   */\n      0x00\n        /* \"#utility.yul\":6301:6302   */\n      dup1\n        /* \"#utility.yul\":6294:6306   */\n      revert\n        /* \"#utility.yul\":6318:6435   */\n    tag_61:\n        /* \"#utility.yul\":6427:6428   */\n      0x00\n        /* \"#utility.yul\":6424:6425   */\n      dup1\n        /* \"#utility.yul\":6417:6429   */\n      revert\n        /* \"#utility.yul\":6441:6558   */\n    tag_80:\n        /* \"#utility.yul\":6550:6551   */\n      0x00\n        /* \"#utility.yul\":6547:6548   */\n      dup1\n        /* \"#utility.yul\":6540:6552   */\n      revert\n        /* \"#utility.yul\":6564:6681   */\n    tag_77:\n        /* \"#utility.yul\":6673:6674   */\n      0x00\n        /* \"#utility.yul\":6670:6671   */\n      dup1\n        /* \"#utility.yul\":6663:6675   */\n      revert\n        /* \"#utility.yul\":6687:6789   */\n    tag_98:\n        /* \"#utility.yul\":6728:6734   */\n      0x00\n        /* \"#utility.yul\":6779:6781   */\n      0x1f\n        /* \"#utility.yul\":6775:6782   */\n      not\n        /* \"#utility.yul\":6770:6772   */\n      0x1f\n        /* \"#utility.yul\":6763:6768   */\n      dup4\n        /* \"#utility.yul\":6759:6773   */\n      add\n        /* \"#utility.yul\":6755:6783   */\n      and\n        /* \"#utility.yul\":6745:6783   */\n      swap1\n      pop\n        /* \"#utility.yul\":6687:6789   */\n      swap2\n      swap1\n      pop\n      jump\t// out\n        /* \"#utility.yul\":6795:6917   */\n    tag_73:\n        /* \"#utility.yul\":6868:6892   */\n      tag_152\n        /* \"#utility.yul\":6886:6891   */\n      dup2\n        /* \"#utility.yul\":6868:6892   */\n      tag_102\n      jump\t// in\n    tag_152:\n        /* \"#utility.yul\":6861:6866   */\n      dup2\n        /* \"#utility.yul\":6858:6893   */\n      eq\n        /* \"#utility.yul\":6848:6911   */\n      tag_153\n      jumpi\n        /* \"#utility.yul\":6907:6908   */\n      0x00\n        /* \"#utility.yul\":6904:6905   */\n      dup1\n        /* \"#utility.yul\":6897:6909   */\n      revert\n        /* \"#utility.yul\":6848:6911   */\n    tag_153:\n        /* \"#utility.yul\":6795:6917   */\n      pop\n      jump\t// out\n\n    auxdata: 0xa2646970667358221220dd6ecb78825f48d938303dbef029f0af328fe70475c0004274b1604cc538ad6b64736f6c63430008070033\n}\n",
				"bytecode": {
					"linkReferences": {},
					"object": "60806040526000805534801561001457600080fd5b5033600160006101000a81548173ffffffffffffffffffffffffffffffffffffffff021916908373ffffffffffffffffffffffffffffffffffffffff1602179055506107ab806100656000396000f3fe608060405234801561001057600080fd5b50600436106100415760003560e01c80637b95d97d146100465780639174a36f146100645780639e7a13ad14610080575b600080fd5b61004e6100b1565b60405161005b919061051a565b60405180910390f35b61007e600480360381019061007991906103f6565b6100b7565b005b61009a6004803603810190610095919061046e565b610183565b6040516100a89291906104e3565b60405180910390f35b60005481565b600160009054906101000a900473ffffffffffffffffffffffffffffffffffffffff1673ffffffffffffffffffffffffffffffffffffffff163373ffffffffffffffffffffffffffffffffffffffff161461011157600080fd5b6101196102b7565b6040518060400160405280838152602001828152506002600080548152602001908152602001600020600082015181600001908051906020019061015e9291906102ce565b50602082015181600101908051906020019061017b9291906102ce565b509050505050565b60026020528060005260406000206000915090508060000180546101a690610649565b80601f01602080910402602001604051908101604052809291908181526020018280546101d290610649565b801561021f5780601f106101f45761010080835404028352916020019161021f565b820191906000526020600020905b81548152906001019060200180831161020257829003601f168201915b50505050509080600101805461023490610649565b80601f016020809104026020016040519081016040528092919081815260200182805461026090610649565b80156102ad5780601f10610282576101008083540402835291602001916102ad565b820191906000526020600020905b81548152906001019060200180831161029057829003601f168201915b5050505050905082565b60016000546102c691906105a7565b600081905550565b8280546102da90610649565b90600052602060002090601f0160209004810192826102fc5760008555610343565b82601f1061031557805160ff1916838001178555610343565b82800160010185558215610343579182015b82811115610342578251825591602001919060010190610327565b5b5090506103509190610354565b5090565b5b8082111561036d576000816000905550600101610355565b5090565b600061038461037f8461055a565b610535565b9050828152602081018484840111156103a05761039f61073e565b5b6103ab848285610607565b509392505050565b600082601f8301126103c8576103c7610739565b5b81356103d8848260208601610371565b91505092915050565b6000813590506103f08161075e565b92915050565b6000806040838503121561040d5761040c610748565b5b600083013567ffffffffffffffff81111561042b5761042a610743565b5b610437858286016103b3565b925050602083013567ffffffffffffffff81111561045857610457610743565b5b610464858286016103b3565b9150509250929050565b60006020828403121561048457610483610748565b5b6000610492848285016103e1565b91505092915050565b60006104a68261058b565b6104b08185610596565b93506104c0818560208601610616565b6104c98161074d565b840191505092915050565b6104dd816105fd565b82525050565b600060408201905081810360008301526104fd818561049b565b90508181036020830152610511818461049b565b90509392505050565b600060208201905061052f60008301846104d4565b92915050565b600061053f610550565b905061054b828261067b565b919050565b6000604051905090565b600067ffffffffffffffff8211156105755761057461070a565b5b61057e8261074d565b9050602081019050919050565b600081519050919050565b600082825260208201905092915050565b60006105b2826105fd565b91506105bd836105fd565b9250827fffffffffffffffffffffffffffffffffffffffffffffffffffffffffffffffff038211156105f2576105f16106ac565b5b828201905092915050565b6000819050919050565b82818337600083830152505050565b60005b83811015610634578082015181840152602081019050610619565b83811115610643576000848401525b50505050565b6000600282049050600182168061066157607f821691505b60208210811415610675576106746106db565b5b50919050565b6106848261074d565b810181811067ffffffffffffffff821117156106a3576106a261070a565b5b80604052505050565b7f4e487b7100000000000000000000000000000000000000000000000000000000600052601160045260246000fd5b7f4e487b7100000000000000000000000000000000000000000000000000000000600052602260045260246000fd5b7f4e487b7100000000000000000000000000000000000000000000000000000000600052604160045260246000fd5b600080fd5b600080fd5b600080fd5b600080fd5b6000601f19601f8301169050919050565b610767816105fd565b811461077257600080fd5b5056fea2646970667358221220dd6ecb78825f48d938303dbef029f0af328fe70475c0004274b1604cc538ad6b64736f6c63430008070033",
					"opcodes": "PUSH1 0x80 PUSH1 0x40 MSTORE PUSH1 0x0 DUP1 SSTORE CALLVALUE DUP1 ISZERO PUSH2 0x14 JUMPI PUSH1 0x0 DUP1 REVERT JUMPDEST POP CALLER PUSH1 0x1 PUSH1 0x0 PUSH2 0x100 EXP DUP2 SLOAD DUP2 PUSH20 0xFFFFFFFFFFFFFFFFFFFFFFFFFFFFFFFFFFFFFFFF MUL NOT AND SWAP1 DUP4 PUSH20 0xFFFFFFFFFFFFFFFFFFFFFFFFFFFFFFFFFFFFFFFF AND MUL OR SWAP1 SSTORE POP PUSH2 0x7AB DUP1 PUSH2 0x65 PUSH1 0x0 CODECOPY PUSH1 0x0 RETURN INVALID PUSH1 0x80 PUSH1 0x40 MSTORE CALLVALUE DUP1 ISZERO PUSH2 0x10 JUMPI PUSH1 0x0 DUP1 REVERT JUMPDEST POP PUSH1 0x4 CALLDATASIZE LT PUSH2 0x41 JUMPI PUSH1 0x0 CALLDATALOAD PUSH1 0xE0 SHR DUP1 PUSH4 0x7B95D97D EQ PUSH2 0x46 JUMPI DUP1 PUSH4 0x9174A36F EQ PUSH2 0x64 JUMPI DUP1 PUSH4 0x9E7A13AD EQ PUSH2 0x80 JUMPI JUMPDEST PUSH1 0x0 DUP1 REVERT JUMPDEST PUSH2 0x4E PUSH2 0xB1 JUMP JUMPDEST PUSH1 0x40 MLOAD PUSH2 0x5B SWAP2 SWAP1 PUSH2 0x51A JUMP JUMPDEST PUSH1 0x40 MLOAD DUP1 SWAP2 SUB SWAP1 RETURN JUMPDEST PUSH2 0x7E PUSH1 0x4 DUP1 CALLDATASIZE SUB DUP2 ADD SWAP1 PUSH2 0x79 SWAP2 SWAP1 PUSH2 0x3F6 JUMP JUMPDEST PUSH2 0xB7 JUMP JUMPDEST STOP JUMPDEST PUSH2 0x9A PUSH1 0x4 DUP1 CALLDATASIZE SUB DUP2 ADD SWAP1 PUSH2 0x95 SWAP2 SWAP1 PUSH2 0x46E JUMP JUMPDEST PUSH2 0x183 JUMP JUMPDEST PUSH1 0x40 MLOAD PUSH2 0xA8 SWAP3 SWAP2 SWAP1 PUSH2 0x4E3 JUMP JUMPDEST PUSH1 0x40 MLOAD DUP1 SWAP2 SUB SWAP1 RETURN JUMPDEST PUSH1 0x0 SLOAD DUP2 JUMP JUMPDEST PUSH1 0x1 PUSH1 0x0 SWAP1 SLOAD SWAP1 PUSH2 0x100 EXP SWAP1 DIV PUSH20 0xFFFFFFFFFFFFFFFFFFFFFFFFFFFFFFFFFFFFFFFF AND PUSH20 0xFFFFFFFFFFFFFFFFFFFFFFFFFFFFFFFFFFFFFFFF AND CALLER PUSH20 0xFFFFFFFFFFFFFFFFFFFFFFFFFFFFFFFFFFFFFFFF AND EQ PUSH2 0x111 JUMPI PUSH1 0x0 DUP1 REVERT JUMPDEST PUSH2 0x119 PUSH2 0x2B7 JUMP JUMPDEST PUSH1 0x40 MLOAD DUP1 PUSH1 0x40 ADD PUSH1 0x40 MSTORE DUP1 DUP4 DUP2 MSTORE PUSH1 0x20 ADD DUP3 DUP2 MSTORE POP PUSH1 0x2 PUSH1 0x0 DUP1 SLOAD DUP2 MSTORE PUSH1 0x20 ADD SWAP1 DUP2 MSTORE PUSH1 0x20 ADD PUSH1 0x0 KECCAK256 PUSH1 0x0 DUP3 ADD MLOAD DUP2 PUSH1 0x0 ADD SWAP1 DUP1 MLOAD SWAP1 PUSH1 0x20 ADD SWAP1 PUSH2 0x15E SWAP3 SWAP2 SWAP1 PUSH2 0x2CE JUMP JUMPDEST POP PUSH1 0x20 DUP3 ADD MLOAD DUP2 PUSH1 0x1 ADD SWAP1 DUP1 MLOAD SWAP1 PUSH1 0x20 ADD SWAP1 PUSH2 0x17B SWAP3 SWAP2 SWAP1 PUSH2 0x2CE JUMP JUMPDEST POP SWAP1 POP POP POP POP JUMP JUMPDEST PUSH1 0x2 PUSH1 0x20 MSTORE DUP1 PUSH1 0x0 MSTORE PUSH1 0x40 PUSH1 0x0 KECCAK256 PUSH1 0x0 SWAP2 POP SWAP1 POP DUP1 PUSH1 0x0 ADD DUP1 SLOAD PUSH2 0x1A6 SWAP1 PUSH2 0x649 JUMP JUMPDEST DUP1 PUSH1 0x1F ADD PUSH1 0x20 DUP1 SWAP2 DIV MUL PUSH1 0x20 ADD PUSH1 0x40 MLOAD SWAP1 DUP2 ADD PUSH1 0x40 MSTORE DUP1 SWAP3 SWAP2 SWAP1 DUP2 DUP2 MSTORE PUSH1 0x20 ADD DUP3 DUP1 SLOAD PUSH2 0x1D2 SWAP1 PUSH2 0x649 JUMP JUMPDEST DUP1 ISZERO PUSH2 0x21F JUMPI DUP1 PUSH1 0x1F LT PUSH2 0x1F4 JUMPI PUSH2 0x100 DUP1 DUP4 SLOAD DIV MUL DUP4 MSTORE SWAP2 PUSH1 0x20 ADD SWAP2 PUSH2 0x21F JUMP JUMPDEST DUP3 ADD SWAP2 SWAP1 PUSH1 0x0 MSTORE PUSH1 0x20 PUSH1 0x0 KECCAK256 SWAP1 JUMPDEST DUP2 SLOAD DUP2 MSTORE SWAP1 PUSH1 0x1 ADD SWAP1 PUSH1 0x20 ADD DUP1 DUP4 GT PUSH2 0x202 JUMPI DUP3 SWAP1 SUB PUSH1 0x1F AND DUP3 ADD SWAP2 JUMPDEST POP POP POP POP POP SWAP1 DUP1 PUSH1 0x1 ADD DUP1 SLOAD PUSH2 0x234 SWAP1 PUSH2 0x649 JUMP JUMPDEST DUP1 PUSH1 0x1F ADD PUSH1 0x20 DUP1 SWAP2 DIV MUL PUSH1 0x20 ADD PUSH1 0x40 MLOAD SWAP1 DUP2 ADD PUSH1 0x40 MSTORE DUP1 SWAP3 SWAP2 SWAP1 DUP2 DUP2 MSTORE PUSH1 0x20 ADD DUP3 DUP1 SLOAD PUSH2 0x260 SWAP1 PUSH2 0x649 JUMP JUMPDEST DUP1 ISZERO PUSH2 0x2AD JUMPI DUP1 PUSH1 0x1F LT PUSH2 0x282 JUMPI PUSH2 0x100 DUP1 DUP4 SLOAD DIV MUL DUP4 MSTORE SWAP2 PUSH1 0x20 ADD SWAP2 PUSH2 0x2AD JUMP JUMPDEST DUP3 ADD SWAP2 SWAP1 PUSH1 0x0 MSTORE PUSH1 0x20 PUSH1 0x0 KECCAK256 SWAP1 JUMPDEST DUP2 SLOAD DUP2 MSTORE SWAP1 PUSH1 0x1 ADD SWAP1 PUSH1 0x20 ADD DUP1 DUP4 GT PUSH2 0x290 JUMPI DUP3 SWAP1 SUB PUSH1 0x1F AND DUP3 ADD SWAP2 JUMPDEST POP POP POP POP POP SWAP1 POP DUP3 JUMP JUMPDEST PUSH1 0x1 PUSH1 0x0 SLOAD PUSH2 0x2C6 SWAP2 SWAP1 PUSH2 0x5A7 JUMP JUMPDEST PUSH1 0x0 DUP2 SWAP1 SSTORE POP JUMP JUMPDEST DUP3 DUP1 SLOAD PUSH2 0x2DA SWAP1 PUSH2 0x649 JUMP JUMPDEST SWAP1 PUSH1 0x0 MSTORE PUSH1 0x20 PUSH1 0x0 KECCAK256 SWAP1 PUSH1 0x1F ADD PUSH1 0x20 SWAP1 DIV DUP2 ADD SWAP3 DUP3 PUSH2 0x2FC JUMPI PUSH1 0x0 DUP6 SSTORE PUSH2 0x343 JUMP JUMPDEST DUP3 PUSH1 0x1F LT PUSH2 0x315 JUMPI DUP1 MLOAD PUSH1 0xFF NOT AND DUP4 DUP1 ADD OR DUP6 SSTORE PUSH2 0x343 JUMP JUMPDEST DUP3 DUP1 ADD PUSH1 0x1 ADD DUP6 SSTORE DUP3 ISZERO PUSH2 0x343 JUMPI SWAP2 DUP3 ADD JUMPDEST DUP3 DUP2 GT ISZERO PUSH2 0x342 JUMPI DUP3 MLOAD DUP3 SSTORE SWAP2 PUSH1 0x20 ADD SWAP2 SWAP1 PUSH1 0x1 ADD SWAP1 PUSH2 0x327 JUMP JUMPDEST JUMPDEST POP SWAP1 POP PUSH2 0x350 SWAP2 SWAP1 PUSH2 0x354 JUMP JUMPDEST POP SWAP1 JUMP JUMPDEST JUMPDEST DUP1 DUP3 GT ISZERO PUSH2 0x36D JUMPI PUSH1 0x0 DUP2 PUSH1 0x0 SWAP1 SSTORE POP PUSH1 0x1 ADD PUSH2 0x355 JUMP JUMPDEST POP SWAP1 JUMP JUMPDEST PUSH1 0x0 PUSH2 0x384 PUSH2 0x37F DUP5 PUSH2 0x55A JUMP JUMPDEST PUSH2 0x535 JUMP JUMPDEST SWAP1 POP DUP3 DUP2 MSTORE PUSH1 0x20 DUP2 ADD DUP5 DUP5 DUP5 ADD GT ISZERO PUSH2 0x3A0 JUMPI PUSH2 0x39F PUSH2 0x73E JUMP JUMPDEST JUMPDEST PUSH2 0x3AB DUP5 DUP3 DUP6 PUSH2 0x607 JUMP JUMPDEST POP SWAP4 SWAP3 POP POP POP JUMP JUMPDEST PUSH1 0x0 DUP3 PUSH1 0x1F DUP4 ADD SLT PUSH2 0x3C8 JUMPI PUSH2 0x3C7 PUSH2 0x739 JUMP JUMPDEST JUMPDEST DUP2 CALLDATALOAD PUSH2 0x3D8 DUP5 DUP3 PUSH1 0x20 DUP7 ADD PUSH2 0x371 JUMP JUMPDEST SWAP2 POP POP SWAP3 SWAP2 POP POP JUMP JUMPDEST PUSH1 0x0 DUP2 CALLDATALOAD SWAP1 POP PUSH2 0x3F0 DUP2 PUSH2 0x75E JUMP JUMPDEST SWAP3 SWAP2 POP POP JUMP JUMPDEST PUSH1 0x0 DUP1 PUSH1 0x40 DUP4 DUP6 SUB SLT ISZERO PUSH2 0x40D JUMPI PUSH2 0x40C PUSH2 0x748 JUMP JUMPDEST JUMPDEST PUSH1 0x0 DUP4 ADD CALLDATALOAD PUSH8 0xFFFFFFFFFFFFFFFF DUP2 GT ISZERO PUSH2 0x42B JUMPI PUSH2 0x42A PUSH2 0x743 JUMP JUMPDEST JUMPDEST PUSH2 0x437 DUP6 DUP3 DUP7 ADD PUSH2 0x3B3 JUMP JUMPDEST SWAP3 POP POP PUSH1 0x20 DUP4 ADD CALLDATALOAD PUSH8 0xFFFFFFFFFFFFFFFF DUP2 GT ISZERO PUSH2 0x458 JUMPI PUSH2 0x457 PUSH2 0x743 JUMP JUMPDEST JUMPDEST PUSH2 0x464 DUP6 DUP3 DUP7 ADD PUSH2 0x3B3 JUMP JUMPDEST SWAP2 POP POP SWAP3 POP SWAP3 SWAP1 POP JUMP JUMPDEST PUSH1 0x0 PUSH1 0x20 DUP3 DUP5 SUB SLT ISZERO PUSH2 0x484 JUMPI PUSH2 0x483 PUSH2 0x748 JUMP JUMPDEST JUMPDEST PUSH1 0x0 PUSH2 0x492 DUP5 DUP3 DUP6 ADD PUSH2 0x3E1 JUMP JUMPDEST SWAP2 POP POP SWAP3 SWAP2 POP POP JUMP JUMPDEST PUSH1 0x0 PUSH2 0x4A6 DUP3 PUSH2 0x58B JUMP JUMPDEST PUSH2 0x4B0 DUP2 DUP6 PUSH2 0x596 JUMP JUMPDEST SWAP4 POP PUSH2 0x4C0 DUP2 DUP6 PUSH1 0x20 DUP7 ADD PUSH2 0x616 JUMP JUMPDEST PUSH2 0x4C9 DUP2 PUSH2 0x74D JUMP JUMPDEST DUP5 ADD SWAP2 POP POP SWAP3 SWAP2 POP POP JUMP JUMPDEST PUSH2 0x4DD DUP2 PUSH2 0x5FD JUMP JUMPDEST DUP3 MSTORE POP POP JUMP JUMPDEST PUSH1 0x0 PUSH1 0x40 DUP3 ADD SWAP1 POP DUP2 DUP2 SUB PUSH1 0x0 DUP4 ADD MSTORE PUSH2 0x4FD DUP2 DUP6 PUSH2 0x49B JUMP JUMPDEST SWAP1 POP DUP2 DUP2 SUB PUSH1 0x20 DUP4 ADD MSTORE PUSH2 0x511 DUP2 DUP5 PUSH2 0x49B JUMP JUMPDEST SWAP1 POP SWAP4 SWAP3 POP POP POP JUMP JUMPDEST PUSH1 0x0 PUSH1 0x20 DUP3 ADD SWAP1 POP PUSH2 0x52F PUSH1 0x0 DUP4 ADD DUP5 PUSH2 0x4D4 JUMP JUMPDEST SWAP3 SWAP2 POP POP JUMP JUMPDEST PUSH1 0x0 PUSH2 0x53F PUSH2 0x550 JUMP JUMPDEST SWAP1 POP PUSH2 0x54B DUP3 DUP3 PUSH2 0x67B JUMP JUMPDEST SWAP2 SWAP1 POP JUMP JUMPDEST PUSH1 0x0 PUSH1 0x40 MLOAD SWAP1 POP SWAP1 JUMP JUMPDEST PUSH1 0x0 PUSH8 0xFFFFFFFFFFFFFFFF DUP3 GT ISZERO PUSH2 0x575 JUMPI PUSH2 0x574 PUSH2 0x70A JUMP JUMPDEST JUMPDEST PUSH2 0x57E DUP3 PUSH2 0x74D JUMP JUMPDEST SWAP1 POP PUSH1 0x20 DUP2 ADD SWAP1 POP SWAP2 SWAP1 POP JUMP JUMPDEST PUSH1 0x0 DUP2 MLOAD SWAP1 POP SWAP2 SWAP1 POP JUMP JUMPDEST PUSH1 0x0 DUP3 DUP3 MSTORE PUSH1 0x20 DUP3 ADD SWAP1 POP SWAP3 SWAP2 POP POP JUMP JUMPDEST PUSH1 0x0 PUSH2 0x5B2 DUP3 PUSH2 0x5FD JUMP JUMPDEST SWAP2 POP PUSH2 0x5BD DUP4 PUSH2 0x5FD JUMP JUMPDEST SWAP3 POP DUP3 PUSH32 0xFFFFFFFFFFFFFFFFFFFFFFFFFFFFFFFFFFFFFFFFFFFFFFFFFFFFFFFFFFFFFFFF SUB DUP3 GT ISZERO PUSH2 0x5F2 JUMPI PUSH2 0x5F1 PUSH2 0x6AC JUMP JUMPDEST JUMPDEST DUP3 DUP3 ADD SWAP1 POP SWAP3 SWAP2 POP POP JUMP JUMPDEST PUSH1 0x0 DUP2 SWAP1 POP SWAP2 SWAP1 POP JUMP JUMPDEST DUP3 DUP2 DUP4 CALLDATACOPY PUSH1 0x0 DUP4 DUP4 ADD MSTORE POP POP POP JUMP JUMPDEST PUSH1 0x0 JUMPDEST DUP4 DUP2 LT ISZERO PUSH2 0x634 JUMPI DUP1 DUP3 ADD MLOAD DUP2 DUP5 ADD MSTORE PUSH1 0x20 DUP2 ADD SWAP1 POP PUSH2 0x619 JUMP JUMPDEST DUP4 DUP2 GT ISZERO PUSH2 0x643 JUMPI PUSH1 0x0 DUP5 DUP5 ADD MSTORE JUMPDEST POP POP POP POP JUMP JUMPDEST PUSH1 0x0 PUSH1 0x2 DUP3 DIV SWAP1 POP PUSH1 0x1 DUP3 AND DUP1 PUSH2 0x661 JUMPI PUSH1 0x7F DUP3 AND SWAP2 POP JUMPDEST PUSH1 0x20 DUP3 LT DUP2 EQ ISZERO PUSH2 0x675 JUMPI PUSH2 0x674 PUSH2 0x6DB JUMP JUMPDEST JUMPDEST POP SWAP2 SWAP1 POP JUMP JUMPDEST PUSH2 0x684 DUP3 PUSH2 0x74D JUMP JUMPDEST DUP2 ADD DUP2 DUP2 LT PUSH8 0xFFFFFFFFFFFFFFFF DUP3 GT OR ISZERO PUSH2 0x6A3 JUMPI PUSH2 0x6A2 PUSH2 0x70A JUMP JUMPDEST JUMPDEST DUP1 PUSH1 0x40 MSTORE POP POP POP JUMP JUMPDEST PUSH32 0x4E487B7100000000000000000000000000000000000000000000000000000000 PUSH1 0x0 MSTORE PUSH1 0x11 PUSH1 0x4 MSTORE PUSH1 0x24 PUSH1 0x0 REVERT JUMPDEST PUSH32 0x4E487B7100000000000000000000000000000000000000000000000000000000 PUSH1 0x0 MSTORE PUSH1 0x22 PUSH1 0x4 MSTORE PUSH1 0x24 PUSH1 0x0 REVERT JUMPDEST PUSH32 0x4E487B7100000000000000000000000000000000000000000000000000000000 PUSH1 0x0 MSTORE PUSH1 0x41 PUSH1 0x4 MSTORE PUSH1 0x24 PUSH1 0x0 REVERT JUMPDEST PUSH1 0x0 DUP1 REVERT JUMPDEST PUSH1 0x0 DUP1 REVERT JUMPDEST PUSH1 0x0 DUP1 REVERT JUMPDEST PUSH1 0x0 DUP1 REVERT JUMPDEST PUSH1 0x0 PUSH1 0x1F NOT PUSH1 0x1F DUP4 ADD AND SWAP1 POP SWAP2 SWAP1 POP JUMP JUMPDEST PUSH2 0x767 DUP2 PUSH2 0x5FD JUMP JUMPDEST DUP2 EQ PUSH2 0x772 JUMPI PUSH1 0x0 DUP1 REVERT JUMPDEST POP JUMP INVALID LOG2 PUSH5 0x6970667358 0x22 SLT KECCAK256 0xDD PUSH15 0xCB78825F48D938303DBEF029F0AF32 DUP16 0xE7 DIV PUSH22 0xC0004274B1604CC538AD6B64736F6C63430008070033 "
				},
				"gasEstimates": {
					"creation": {
						"codeDepositCost": "392600",
						"executionCost": "29702",
						"totalCost": "422302"
					},
					"external": {
						"add_person(string,string)": "infinite",
						"people(uint256)": "infinite",
						"people_count()": "2407"
					},
					"internal": {
						"increment_count()": "infinite"
					}
				},
				"methodIdentifiers": {
					"add_person(string,string)": "9174a36f",
					"people(uint256)": "9e7a13ad",
					"people_count()": "7b95d97d"
				}
			},
			"storageLayout": {
				"storage": [
					{
						"astId": 4,
						"contract": "contracts/modifier.sol:maping",
						"label": "people_count",
						"offset": 0,
						"slot": "0",
						"type": "t_uint256"
					},
					{
						"astId": 6,
						"contract": "contracts/modifier.sol:maping",
						"label": "owner",
						"offset": 0,
						"slot": "1",
						"type": "t_address"
					},
					{
						"astId": 11,
						"contract": "contracts/modifier.sol:maping",
						"label": "people",
						"offset": 0,
						"slot": "2",
						"type": "t_mapping(t_uint256,t_struct(person)36_storage)"
					}
				],
				"types": {
					"t_address": {
						"encoding": "inplace",
						"label": "address",
						"numberOfBytes": "20"
					},
					"t_mapping(t_uint256,t_struct(person)36_storage)": {
						"encoding": "mapping",
						"key": "t_uint256",
						"label": "mapping(uint256 => struct maping.person)",
						"numberOfBytes": "32",
						"value": "t_struct(person)36_storage"
					},
					"t_string_storage": {
						"encoding": "bytes",
						"label": "string",
						"numberOfBytes": "32"
					},
					"t_struct(person)36_storage": {
						"encoding": "inplace",
						"label": "struct maping.person",
						"members": [
							{
								"astId": 33,
								"contract": "contracts/modifier.sol:maping",
								"label": "firstname",
								"offset": 0,
								"slot": "0",
								"type": "t_string_storage"
							},
							{
								"astId": 35,
								"contract": "contracts/modifier.sol:maping",
								"label": "lastname",
								"offset": 0,
								"slot": "1",
								"type": "t_string_storage"
							}
						],
						"numberOfBytes": "64"
					},
					"t_uint256": {
						"encoding": "inplace",
						"label": "uint256",
						"numberOfBytes": "32"
					}
				}
			},
			"userdoc": {
				"kind": "user",
				"methods": {},
				"version": 1
			}
		}
	}
}