{
	"contracts/enum.sol": {
		"enum_tutorial": {
			"abi": [
				{
					"inputs": [],
					"stateMutability": "nonpayable",
					"type": "constructor"
				},
				{
					"inputs": [],
					"name": "get_person",
					"outputs": [
						{
							"internalType": "enum enum_tutorial.PersonType",
							"name": "",
							"type": "uint8"
						}
					],
					"stateMutability": "view",
					"type": "function"
				},
				{
					"inputs": [],
					"name": "promote_person",
					"outputs": [],
					"stateMutability": "nonpayable",
					"type": "function"
				}
			],
			"devdoc": {
				"kind": "dev",
				"methods": {},
				"version": 1
			},
			"evm": {
				"assembly": "    /* \"contracts/enum.sol\":56:499  contract enum_tutorial\r... */\n  mstore(0x40, 0x80)\n    /* \"contracts/enum.sol\":185:281  constructor()\r... */\n  callvalue\n  dup1\n  iszero\n  tag_1\n  jumpi\n  0x00\n  dup1\n  revert\ntag_1:\n  pop\n    /* \"contracts/enum.sol\":254:273  PersonType.outsider */\n  0x00\n    /* \"contracts/enum.sol\":245:251  person */\n  dup1\n  0x00\n    /* \"contracts/enum.sol\":245:273  person = PersonType.outsider */\n  0x0100\n  exp\n  dup2\n  sload\n  dup2\n  0xff\n  mul\n  not\n  and\n  swap1\n  dup4\n  0x02\n  dup2\n  gt\n  iszero\n  tag_4\n  jumpi\n  tag_5\n  tag_6\n  jump\t// in\ntag_5:\ntag_4:\n  mul\n  or\n  swap1\n  sstore\n  pop\n    /* \"contracts/enum.sol\":56:499  contract enum_tutorial\r... */\n  jump(tag_7)\n    /* \"#utility.yul\":7:187   */\ntag_6:\n    /* \"#utility.yul\":55:132   */\n  0x4e487b7100000000000000000000000000000000000000000000000000000000\n    /* \"#utility.yul\":52:53   */\n  0x00\n    /* \"#utility.yul\":45:133   */\n  mstore\n    /* \"#utility.yul\":152:156   */\n  0x21\n    /* \"#utility.yul\":149:150   */\n  0x04\n    /* \"#utility.yul\":142:157   */\n  mstore\n    /* \"#utility.yul\":176:180   */\n  0x24\n    /* \"#utility.yul\":173:174   */\n  0x00\n    /* \"#utility.yul\":166:181   */\n  revert\n    /* \"contracts/enum.sol\":56:499  contract enum_tutorial\r... */\ntag_7:\n  dataSize(sub_0)\n  dup1\n  dataOffset(sub_0)\n  0x00\n  codecopy\n  0x00\n  return\nstop\n\nsub_0: assembly {\n        /* \"contracts/enum.sol\":56:499  contract enum_tutorial\r... */\n      mstore(0x40, 0x80)\n      callvalue\n      dup1\n      iszero\n      tag_1\n      jumpi\n      0x00\n      dup1\n      revert\n    tag_1:\n      pop\n      jumpi(tag_2, lt(calldatasize, 0x04))\n      shr(0xe0, calldataload(0x00))\n      dup1\n      0x2c1a9a07\n      eq\n      tag_3\n      jumpi\n      dup1\n      0xc2dc6e51\n      eq\n      tag_4\n      jumpi\n    tag_2:\n      0x00\n      dup1\n      revert\n        /* \"contracts/enum.sol\":289:394  function promote_person() public\r... */\n    tag_3:\n      tag_5\n      tag_6\n      jump\t// in\n    tag_5:\n      stop\n        /* \"contracts/enum.sol\":402:494  function get_person() public view returns (PersonType)\r... */\n    tag_4:\n      tag_7\n      tag_8\n      jump\t// in\n    tag_7:\n      mload(0x40)\n      tag_9\n      swap2\n      swap1\n      tag_10\n      jump\t// in\n    tag_9:\n      mload(0x40)\n      dup1\n      swap2\n      sub\n      swap1\n      return\n        /* \"contracts/enum.sol\":289:394  function promote_person() public\r... */\n    tag_6:\n        /* \"contracts/enum.sol\":357:386  PersonType.TeachingAssisstant */\n      0x01\n        /* \"contracts/enum.sol\":348:354  person */\n      0x00\n      dup1\n        /* \"contracts/enum.sol\":348:386  person = PersonType.TeachingAssisstant */\n      0x0100\n      exp\n      dup2\n      sload\n      dup2\n      0xff\n      mul\n      not\n      and\n      swap1\n      dup4\n      0x02\n      dup2\n      gt\n      iszero\n      tag_12\n      jumpi\n      tag_13\n      tag_14\n      jump\t// in\n    tag_13:\n    tag_12:\n      mul\n      or\n      swap1\n      sstore\n      pop\n        /* \"contracts/enum.sol\":289:394  function promote_person() public\r... */\n      jump\t// out\n        /* \"contracts/enum.sol\":402:494  function get_person() public view returns (PersonType)\r... */\n    tag_8:\n        /* \"contracts/enum.sol\":445:455  PersonType */\n      0x00\n        /* \"contracts/enum.sol\":480:486  person */\n      dup1\n      0x00\n      swap1\n      sload\n      swap1\n      0x0100\n      exp\n      swap1\n      div\n      0xff\n      and\n        /* \"contracts/enum.sol\":473:486  return person */\n      swap1\n      pop\n        /* \"contracts/enum.sol\":402:494  function get_person() public view returns (PersonType)\r... */\n      swap1\n      jump\t// out\n        /* \"#utility.yul\":7:158   */\n    tag_17:\n        /* \"#utility.yul\":104:151   */\n      tag_19\n        /* \"#utility.yul\":145:150   */\n      dup2\n        /* \"#utility.yul\":104:151   */\n      tag_20\n      jump\t// in\n    tag_19:\n        /* \"#utility.yul\":99:102   */\n      dup3\n        /* \"#utility.yul\":92:152   */\n      mstore\n        /* \"#utility.yul\":7:158   */\n      pop\n      pop\n      jump\t// out\n        /* \"#utility.yul\":164:406   */\n    tag_10:\n        /* \"#utility.yul\":267:271   */\n      0x00\n        /* \"#utility.yul\":305:307   */\n      0x20\n        /* \"#utility.yul\":294:303   */\n      dup3\n        /* \"#utility.yul\":290:308   */\n      add\n        /* \"#utility.yul\":282:308   */\n      swap1\n      pop\n        /* \"#utility.yul\":318:399   */\n      tag_22\n        /* \"#utility.yul\":396:397   */\n      0x00\n        /* \"#utility.yul\":385:394   */\n      dup4\n        /* \"#utility.yul\":381:398   */\n      add\n        /* \"#utility.yul\":372:378   */\n      dup5\n        /* \"#utility.yul\":318:399   */\n      tag_17\n      jump\t// in\n    tag_22:\n        /* \"#utility.yul\":164:406   */\n      swap3\n      swap2\n      pop\n      pop\n      jump\t// out\n        /* \"#utility.yul\":412:547   */\n    tag_23:\n        /* \"#utility.yul\":461:468   */\n      0x00\n        /* \"#utility.yul\":490:495   */\n      dup2\n        /* \"#utility.yul\":479:495   */\n      swap1\n      pop\n        /* \"#utility.yul\":496:541   */\n      tag_25\n        /* \"#utility.yul\":535:540   */\n      dup3\n        /* \"#utility.yul\":496:541   */\n      tag_26\n      jump\t// in\n    tag_25:\n        /* \"#utility.yul\":412:547   */\n      swap2\n      swap1\n      pop\n      jump\t// out\n        /* \"#utility.yul\":553:688   */\n    tag_20:\n        /* \"#utility.yul\":613:622   */\n      0x00\n        /* \"#utility.yul\":646:682   */\n      tag_28\n        /* \"#utility.yul\":676:681   */\n      dup3\n        /* \"#utility.yul\":646:682   */\n      tag_23\n      jump\t// in\n    tag_28:\n        /* \"#utility.yul\":633:682   */\n      swap1\n      pop\n        /* \"#utility.yul\":553:688   */\n      swap2\n      swap1\n      pop\n      jump\t// out\n        /* \"#utility.yul\":694:874   */\n    tag_14:\n        /* \"#utility.yul\":742:819   */\n      0x4e487b7100000000000000000000000000000000000000000000000000000000\n        /* \"#utility.yul\":739:740   */\n      0x00\n        /* \"#utility.yul\":732:820   */\n      mstore\n        /* \"#utility.yul\":839:843   */\n      0x21\n        /* \"#utility.yul\":836:837   */\n      0x04\n        /* \"#utility.yul\":829:844   */\n      mstore\n        /* \"#utility.yul\":863:867   */\n      0x24\n        /* \"#utility.yul\":860:861   */\n      0x00\n        /* \"#utility.yul\":853:868   */\n      revert\n        /* \"#utility.yul\":880:997   */\n    tag_26:\n        /* \"#utility.yul\":965:966   */\n      0x03\n        /* \"#utility.yul\":958:963   */\n      dup2\n        /* \"#utility.yul\":955:967   */\n      lt\n        /* \"#utility.yul\":945:991   */\n      tag_31\n      jumpi\n        /* \"#utility.yul\":971:989   */\n      tag_32\n      tag_14\n      jump\t// in\n    tag_32:\n        /* \"#utility.yul\":945:991   */\n    tag_31:\n        /* \"#utility.yul\":880:997   */\n      pop\n      jump\t// out\n\n    auxdata: 0xa26469706673582212208dc468ace0ddde16b355de12a77c62535b7ba7489dd869670919c3b059029b2964736f6c63430008070033\n}\n",
				"bytecode": {
					"linkReferences": {},
					"object": "608060405234801561001057600080fd5b5060008060006101000a81548160ff0219169083600281111561003657610035610040565b5b021790555061006f565b7f4e487b7100000000000000000000000000000000000000000000000000000000600052602160045260246000fd5b61016d8061007e6000396000f3fe608060405234801561001057600080fd5b50600436106100365760003560e01c80632c1a9a071461003b578063c2dc6e5114610045575b600080fd5b610043610063565b005b61004d61008f565b60405161005a91906100b4565b60405180910390f35b60016000806101000a81548160ff02191690836002811115610088576100876100f4565b5b0217905550565b60008060009054906101000a900460ff16905090565b6100ae816100e2565b82525050565b60006020820190506100c960008301846100a5565b92915050565b60008190506100dd82610123565b919050565b60006100ed826100cf565b9050919050565b7f4e487b7100000000000000000000000000000000000000000000000000000000600052602160045260246000fd5b60038110610134576101336100f4565b5b5056fea26469706673582212208dc468ace0ddde16b355de12a77c62535b7ba7489dd869670919c3b059029b2964736f6c63430008070033",
					"opcodes": "PUSH1 0x80 PUSH1 0x40 MSTORE CALLVALUE DUP1 ISZERO PUSH2 0x10 JUMPI PUSH1 0x0 DUP1 REVERT JUMPDEST POP PUSH1 0x0 DUP1 PUSH1 0x0 PUSH2 0x100 EXP DUP2 SLOAD DUP2 PUSH1 0xFF MUL NOT AND SWAP1 DUP4 PUSH1 0x2 DUP2 GT ISZERO PUSH2 0x36 JUMPI PUSH2 0x35 PUSH2 0x40 JUMP JUMPDEST JUMPDEST MUL OR SWAP1 SSTORE POP PUSH2 0x6F JUMP JUMPDEST PUSH32 0x4E487B7100000000000000000000000000000000000000000000000000000000 PUSH1 0x0 MSTORE PUSH1 0x21 PUSH1 0x4 MSTORE PUSH1 0x24 PUSH1 0x0 REVERT JUMPDEST PUSH2 0x16D DUP1 PUSH2 0x7E PUSH1 0x0 CODECOPY PUSH1 0x0 RETURN INVALID PUSH1 0x80 PUSH1 0x40 MSTORE CALLVALUE DUP1 ISZERO PUSH2 0x10 JUMPI PUSH1 0x0 DUP1 REVERT JUMPDEST POP PUSH1 0x4 CALLDATASIZE LT PUSH2 0x36 JUMPI PUSH1 0x0 CALLDATALOAD PUSH1 0xE0 SHR DUP1 PUSH4 0x2C1A9A07 EQ PUSH2 0x3B JUMPI DUP1 PUSH4 0xC2DC6E51 EQ PUSH2 0x45 JUMPI JUMPDEST PUSH1 0x0 DUP1 REVERT JUMPDEST PUSH2 0x43 PUSH2 0x63 JUMP JUMPDEST STOP JUMPDEST PUSH2 0x4D PUSH2 0x8F JUMP JUMPDEST PUSH1 0x40 MLOAD PUSH2 0x5A SWAP2 SWAP1 PUSH2 0xB4 JUMP JUMPDEST PUSH1 0x40 MLOAD DUP1 SWAP2 SUB SWAP1 RETURN JUMPDEST PUSH1 0x1 PUSH1 0x0 DUP1 PUSH2 0x100 EXP DUP2 SLOAD DUP2 PUSH1 0xFF MUL NOT AND SWAP1 DUP4 PUSH1 0x2 DUP2 GT ISZERO PUSH2 0x88 JUMPI PUSH2 0x87 PUSH2 0xF4 JUMP JUMPDEST JUMPDEST MUL OR SWAP1 SSTORE POP JUMP JUMPDEST PUSH1 0x0 DUP1 PUSH1 0x0 SWAP1 SLOAD SWAP1 PUSH2 0x100 EXP SWAP1 DIV PUSH1 0xFF AND SWAP1 POP SWAP1 JUMP JUMPDEST PUSH2 0xAE DUP2 PUSH2 0xE2 JUMP JUMPDEST DUP3 MSTORE POP POP JUMP JUMPDEST PUSH1 0x0 PUSH1 0x20 DUP3 ADD SWAP1 POP PUSH2 0xC9 PUSH1 0x0 DUP4 ADD DUP5 PUSH2 0xA5 JUMP JUMPDEST SWAP3 SWAP2 POP POP JUMP JUMPDEST PUSH1 0x0 DUP2 SWAP1 POP PUSH2 0xDD DUP3 PUSH2 0x123 JUMP JUMPDEST SWAP2 SWAP1 POP JUMP JUMPDEST PUSH1 0x0 PUSH2 0xED DUP3 PUSH2 0xCF JUMP JUMPDEST SWAP1 POP SWAP2 SWAP1 POP JUMP JUMPDEST PUSH32 0x4E487B7100000000000000000000000000000000000000000000000000000000 PUSH1 0x0 MSTORE PUSH1 0x21 PUSH1 0x4 MSTORE PUSH1 0x24 PUSH1 0x0 REVERT JUMPDEST PUSH1 0x3 DUP2 LT PUSH2 0x134 JUMPI PUSH2 0x133 PUSH2 0xF4 JUMP JUMPDEST JUMPDEST POP JUMP INVALID LOG2 PUSH5 0x6970667358 0x22 SLT KECCAK256 DUP14 0xC4 PUSH9 0xACE0DDDE16B355DE12 0xA7 PUSH29 0x62535B7BA7489DD869670919C3B059029B2964736F6C63430008070033 "
				},
				"gasEstimates": {
					"creation": {
						"codeDepositCost": "73000",
						"executionCost": "24422",
						"totalCost": "97422"
					},
					"external": {
						"get_person()": "2568",
						"promote_person()": "24409"
					}
				},
				"methodIdentifiers": {
					"get_person()": "c2dc6e51",
					"promote_person()": "2c1a9a07"
				}
			},
			"storageLayout": {
				"storage": [
					{
						"astId": 8,
						"contract": "contracts/enum.sol:enum_tutorial",
						"label": "person",
						"offset": 0,
						"slot": "0",
						"type": "t_enum(PersonType)5"
					}
				],
				"types": {
					"t_enum(PersonType)5": {
						"encoding": "inplace",
						"label": "enum enum_tutorial.PersonType",
						"numberOfBytes": "1"
					}
				}
			},
			"userdoc": {
				"kind": "user",
				"methods": {},
				"version": 1
			}
		}
	}
}