{
	"contracts/contractcall.sol": {
		"one": {
			"abi": [
				{
					"constant": false,
					"inputs": [],
					"name": "mint",
					"outputs": [],
					"payable": false,
					"stateMutability": "nonpayable",
					"type": "function"
				}
			],
			"devdoc": {
				"methods": {}
			},
			"evm": {
				"assembly": "    /* \"contracts/contractcall.sol\":75:208  contract one \r... */\n  mstore(0x40, 0x80)\n  callvalue\n    /* \"--CODEGEN--\":8:17   */\n  dup1\n    /* \"--CODEGEN--\":5:7   */\n  iszero\n  tag_1\n  jumpi\n    /* \"--CODEGEN--\":30:31   */\n  0x0\n    /* \"--CODEGEN--\":27:28   */\n  dup1\n    /* \"--CODEGEN--\":20:32   */\n  revert\n    /* \"--CODEGEN--\":5:7   */\ntag_1:\n    /* \"contracts/contractcall.sol\":75:208  contract one \r... */\n  pop\n  dataSize(sub_0)\n  dup1\n  dataOffset(sub_0)\n  0x0\n  codecopy\n  0x0\n  return\nstop\n\nsub_0: assembly {\n        /* \"contracts/contractcall.sol\":75:208  contract one \r... */\n      mstore(0x40, 0x80)\n      jumpi(tag_1, lt(calldatasize, 0x4))\n      calldataload(0x0)\n      0x100000000000000000000000000000000000000000000000000000000\n      swap1\n      div\n      dup1\n      0x1249c58b\n      eq\n      tag_2\n      jumpi\n    tag_1:\n      0x0\n      dup1\n      revert\n        /* \"contracts/contractcall.sol\":138:205  function mint() public\r... */\n    tag_2:\n      callvalue\n        /* \"--CODEGEN--\":8:17   */\n      dup1\n        /* \"--CODEGEN--\":5:7   */\n      iszero\n      tag_3\n      jumpi\n        /* \"--CODEGEN--\":30:31   */\n      0x0\n        /* \"--CODEGEN--\":27:28   */\n      dup1\n        /* \"--CODEGEN--\":20:32   */\n      revert\n        /* \"--CODEGEN--\":5:7   */\n    tag_3:\n        /* \"contracts/contractcall.sol\":138:205  function mint() public\r... */\n      pop\n      tag_4\n      tag_5\n      jump\t// in\n    tag_4:\n      stop\n    tag_5:\n        /* \"contracts/contractcall.sol\":177:184  balance */\n      0x0\n        /* \"contracts/contractcall.sol\":177:195  balance[tx.origin] */\n      dup1\n        /* \"contracts/contractcall.sol\":185:194  tx.origin */\n      origin\n        /* \"contracts/contractcall.sol\":177:195  balance[tx.origin] */\n      0xffffffffffffffffffffffffffffffffffffffff\n      and\n      0xffffffffffffffffffffffffffffffffffffffff\n      and\n      dup2\n      mstore\n      0x20\n      add\n      swap1\n      dup2\n      mstore\n      0x20\n      add\n      0x0\n      keccak256\n      0x0\n        /* \"contracts/contractcall.sol\":177:197  balance[tx.origin]++ */\n      dup2\n      sload\n      dup1\n      swap3\n      swap2\n      swap1\n      0x1\n      add\n      swap2\n      swap1\n      pop\n      sstore\n      pop\n        /* \"contracts/contractcall.sol\":138:205  function mint() public\r... */\n      jump\t// out\n\n    auxdata: 0xa165627a7a72305820ab388fcbc25402bcd49bc641b71a1a81682e5a86b4c0f7667323ac270df297ed0029\n}\n",
				"bytecode": {
					"linkReferences": {},
					"object": "6080604052348015600f57600080fd5b5060ce8061001e6000396000f3fe6080604052600436106039576000357c0100000000000000000000000000000000000000000000000000000000900480631249c58b14603e575b600080fd5b348015604957600080fd5b5060506052565b005b6000803273ffffffffffffffffffffffffffffffffffffffff1673ffffffffffffffffffffffffffffffffffffffff1681526020019081526020016000206000815480929190600101919050555056fea165627a7a72305820ab388fcbc25402bcd49bc641b71a1a81682e5a86b4c0f7667323ac270df297ed0029",
					"opcodes": "PUSH1 0x80 PUSH1 0x40 MSTORE CALLVALUE DUP1 ISZERO PUSH1 0xF JUMPI PUSH1 0x0 DUP1 REVERT JUMPDEST POP PUSH1 0xCE DUP1 PUSH2 0x1E PUSH1 0x0 CODECOPY PUSH1 0x0 RETURN INVALID PUSH1 0x80 PUSH1 0x40 MSTORE PUSH1 0x4 CALLDATASIZE LT PUSH1 0x39 JUMPI PUSH1 0x0 CALLDATALOAD PUSH29 0x100000000000000000000000000000000000000000000000000000000 SWAP1 DIV DUP1 PUSH4 0x1249C58B EQ PUSH1 0x3E JUMPI JUMPDEST PUSH1 0x0 DUP1 REVERT JUMPDEST CALLVALUE DUP1 ISZERO PUSH1 0x49 JUMPI PUSH1 0x0 DUP1 REVERT JUMPDEST POP PUSH1 0x50 PUSH1 0x52 JUMP JUMPDEST STOP JUMPDEST PUSH1 0x0 DUP1 ORIGIN PUSH20 0xFFFFFFFFFFFFFFFFFFFFFFFFFFFFFFFFFFFFFFFF AND PUSH20 0xFFFFFFFFFFFFFFFFFFFFFFFFFFFFFFFFFFFFFFFF AND DUP2 MSTORE PUSH1 0x20 ADD SWAP1 DUP2 MSTORE PUSH1 0x20 ADD PUSH1 0x0 KECCAK256 PUSH1 0x0 DUP2 SLOAD DUP1 SWAP3 SWAP2 SWAP1 PUSH1 0x1 ADD SWAP2 SWAP1 POP SSTORE POP JUMP INVALID LOG1 PUSH6 0x627A7A723058 KECCAK256 0xab CODESIZE DUP16 0xcb 0xc2 SLOAD MUL 0xbc 0xd4 SWAP12 0xc6 COINBASE 0xb7 BYTE BYTE DUP2 PUSH9 0x2E5A86B4C0F7667323 0xac 0x27 0xd CALLCODE SWAP8 0xed STOP 0x29 "
				},
				"gasEstimates": {
					"creation": {
						"codeDepositCost": "41200",
						"executionCost": "93",
						"totalCost": "41293"
					},
					"external": {
						"mint()": "20453"
					}
				},
				"methodIdentifiers": {
					"mint()": "1249c58b"
				}
			},
			"userdoc": {
				"methods": {}
			}
		}
	}
}